{
  "_format": "hh-sol-artifact-1",
  "contractName": "PermissionConditionUpgradeableMock",
  "sourceName": "src/mocks/permission/condition/PermissionConditionUpgradeableMock.sol",
  "abi": [
    {
      "anonymous": false,
      "inputs": [
        {
          "indexed": false,
          "internalType": "uint8",
          "name": "version",
          "type": "uint8"
        }
      ],
      "name": "Initialized",
      "type": "event"
    },
    {
      "inputs": [],
      "name": "answer",
      "outputs": [
        {
          "internalType": "bool",
          "name": "",
          "type": "bool"
        }
      ],
      "stateMutability": "view",
      "type": "function"
    },
    {
      "inputs": [
        {
          "internalType": "address",
          "name": "_where",
          "type": "address"
        },
        {
          "internalType": "address",
          "name": "_who",
          "type": "address"
        },
        {
          "internalType": "bytes32",
          "name": "_permissionId",
          "type": "bytes32"
        },
        {
          "internalType": "bytes",
          "name": "_data",
          "type": "bytes"
        }
      ],
      "name": "isGranted",
      "outputs": [
        {
          "internalType": "bool",
          "name": "",
          "type": "bool"
        }
      ],
      "stateMutability": "view",
      "type": "function"
    },
    {
      "inputs": [],
      "name": "protocolVersion",
      "outputs": [
        {
          "internalType": "uint8[3]",
          "name": "",
          "type": "uint8[3]"
        }
      ],
      "stateMutability": "pure",
      "type": "function"
    },
    {
      "inputs": [
        {
          "internalType": "bool",
          "name": "_answer",
          "type": "bool"
        }
      ],
      "name": "setAnswer",
      "outputs": [],
      "stateMutability": "nonpayable",
      "type": "function"
    },
    {
      "inputs": [
        {
          "internalType": "bytes4",
          "name": "_interfaceId",
          "type": "bytes4"
        }
      ],
      "name": "supportsInterface",
      "outputs": [
        {
          "internalType": "bool",
          "name": "",
          "type": "bool"
        }
      ],
      "stateMutability": "view",
      "type": "function"
    }
  ],
  "bytecode": "0x608060405234801561001057600080fd5b5061033d806100206000396000f3fe608060405234801561001057600080fd5b50600436106100675760003560e01c80632ae9c600116100505780632ae9c600146100b057806385bb7d69146100c5578063f01b7dd2146100d257600080fd5b806301ffc9a71461006c5780632675fdd014610094575b600080fd5b61007f61007a36600461018e565b6100f5565b60405190151581526020015b60405180910390f35b61007f6100a23660046101fe565b60335460ff16949350505050565b6100b8610146565b60405161008b91906102da565b60335461007f9060ff1681565b6100f36100e036600461030e565b6033805460ff1916911515919091179055565b005b60006001600160e01b031982166302675fdd60e41b148061012557506001600160e01b03198216621574e360e91b145b8061014057506301ffc9a760e01b6001600160e01b03198316145b92915050565b61014e610170565b5060408051606081018252600181526004602082015260009181019190915290565b60405180606001604052806003906020820280368337509192915050565b6000602082840312156101a057600080fd5b81356001600160e01b0319811681146101b857600080fd5b9392505050565b803573ffffffffffffffffffffffffffffffffffffffff811681146101e357600080fd5b919050565b634e487b7160e01b600052604160045260246000fd5b6000806000806080858703121561021457600080fd5b61021d856101bf565b935061022b602086016101bf565b925060408501359150606085013567ffffffffffffffff8082111561024f57600080fd5b818701915087601f83011261026357600080fd5b813581811115610275576102756101e8565b604051601f8201601f19908116603f0116810190838211818310171561029d5761029d6101e8565b816040528281528a60208487010111156102b657600080fd5b82602086016020830137600060208483010152809550505050505092959194509250565b60608101818360005b600381101561030557815160ff168352602092830192909101906001016102e3565b50505092915050565b60006020828403121561032057600080fd5b813580151581146101b857600080fdfea164736f6c6343000811000a",
  "linkReferences": {},
  "deployedLinkReferences": {}
}