{
  "_format": "hh-sol-artifact-1",
  "contractName": "VersionComparisonLibMock",
  "sourceName": "src/mocks/utils/versioning/VersionComparisonLibMock.sol",
  "abi": [
    {
      "inputs": [
        {
          "internalType": "uint8[3]",
          "name": "lhs",
          "type": "uint8[3]"
        },
        {
          "internalType": "uint8[3]",
          "name": "rhs",
          "type": "uint8[3]"
        }
      ],
      "name": "eq",
      "outputs": [
        {
          "internalType": "bool",
          "name": "",
          "type": "bool"
        }
      ],
      "stateMutability": "pure",
      "type": "function"
    },
    {
      "inputs": [
        {
          "internalType": "uint8[3]",
          "name": "lhs",
          "type": "uint8[3]"
        },
        {
          "internalType": "uint8[3]",
          "name": "rhs",
          "type": "uint8[3]"
        }
      ],
      "name": "gt",
      "outputs": [
        {
          "internalType": "bool",
          "name": "",
          "type": "bool"
        }
      ],
      "stateMutability": "pure",
      "type": "function"
    },
    {
      "inputs": [
        {
          "internalType": "uint8[3]",
          "name": "lhs",
          "type": "uint8[3]"
        },
        {
          "internalType": "uint8[3]",
          "name": "rhs",
          "type": "uint8[3]"
        }
      ],
      "name": "gte",
      "outputs": [
        {
          "internalType": "bool",
          "name": "",
          "type": "bool"
        }
      ],
      "stateMutability": "pure",
      "type": "function"
    },
    {
      "inputs": [
        {
          "internalType": "uint8[3]",
          "name": "lhs",
          "type": "uint8[3]"
        },
        {
          "internalType": "uint8[3]",
          "name": "rhs",
          "type": "uint8[3]"
        }
      ],
      "name": "lt",
      "outputs": [
        {
          "internalType": "bool",
          "name": "",
          "type": "bool"
        }
      ],
      "stateMutability": "pure",
      "type": "function"
    },
    {
      "inputs": [
        {
          "internalType": "uint8[3]",
          "name": "lhs",
          "type": "uint8[3]"
        },
        {
          "internalType": "uint8[3]",
          "name": "rhs",
          "type": "uint8[3]"
        }
      ],
      "name": "lte",
      "outputs": [
        {
          "internalType": "bool",
          "name": "",
          "type": "bool"
        }
      ],
      "stateMutability": "pure",
      "type": "function"
    },
    {
      "inputs": [
        {
          "internalType": "uint8[3]",
          "name": "lhs",
          "type": "uint8[3]"
        },
        {
          "internalType": "uint8[3]",
          "name": "rhs",
          "type": "uint8[3]"
        }
      ],
      "name": "neq",
      "outputs": [
        {
          "internalType": "bool",
          "name": "",
          "type": "bool"
        }
      ],
      "stateMutability": "pure",
      "type": "function"
    }
  ],
  "bytecode": "0x608060405234801561001057600080fd5b5061052f806100206000396000f3fe608060405234801561001057600080fd5b50600436106100725760003560e01c80639fdb5746116100505780639fdb5746146100c4578063d343ec1b146100d7578063f92e9bb1146100ea57600080fd5b80632198ac8d14610077578063668a90f61461009e57806396b38697146100b1575b600080fd5b61008a6100853660046104ed565b6100fd565b604051901515815260200160405180910390f35b61008a6100ac3660046104ed565b610112565b61008a6100bf3660046104ed565b61011e565b61008a6100d23660046104ed565b61012a565b61008a6100e53660046104ed565b610136565b61008a6100f83660046104ed565b610142565b6000610109838361014e565b90505b92915050565b600061010983836101e8565b6000610109838361027a565b6000610109838361030c565b6000610109838361039d565b600061010983836103f4565b8051825160009160ff9081169116101561016a5750600161010c565b8151835160ff918216911611156101835750600061010c565b6020808301519084015160ff918216911610156101a25750600161010c565b6020808301519084015160ff918216911611156101c15750600061010c565b6040808301519084015160ff9182169116116101df5750600161010c565b50600092915050565b8051825160009160ff908116911610156102045750600161010c565b8151835160ff9182169116111561021d5750600061010c565b6020808301519084015160ff9182169116101561023c5750600161010c565b6020808301519084015160ff9182169116111561025b5750600061010c565b6040808301519084015160ff918216911610156101df5750600161010c565b8051825160009160ff908116911611156102965750600161010c565b8151835160ff918216911610156102af5750600061010c565b6020808301519084015160ff918216911611156102ce5750600161010c565b6020808301519084015160ff918216911610156102ed5750600061010c565b6040808301519084015160ff918216911611156101df5750600161010c565b8051825160009160ff908116911611156103285750600161010c565b8151835160ff918216911610156103415750600061010c565b6020808301519084015160ff918216911611156103605750600161010c565b6020808301519084015160ff9182169116101561037f5750600061010c565b6040808301519084015160ff9182169116106101df5750600161010c565b8051825160009160ff9182169116146103b85750600161010c565b6020808301519084015160ff9081169116146103d65750600161010c565b6040808301519084015160ff9081169116146101df5750600161010c565b8051825160009160ff91821691161461040f5750600061010c565b6020808301519084015160ff90811691161461042d5750600061010c565b6040808301519084015160ff90811691161461044b5750600061010c565b50600192915050565b803560ff8116811461046557600080fd5b919050565b600082601f83011261047b57600080fd5b6040516060810181811067ffffffffffffffff821117156104ac57634e487b7160e01b600052604160045260246000fd5b6040528060608401858111156104c157600080fd5b845b818110156104e2576104d481610454565b8352602092830192016104c3565b509195945050505050565b60008060c0838503121561050057600080fd5b61050a848461046a565b9150610519846060850161046a565b9050925092905056fea164736f6c6343000811000a",
  "linkReferences": {},
  "deployedLinkReferences": {}
}