{
  "_format": "hh-sol-artifact-1",
  "contractName": "PluginCloneableMockBuild1",
  "sourceName": "src/mocks/plugin/PluginCloneableMock.sol",
  "abi": [
    {
      "anonymous": false,
      "inputs": [
        {
          "indexed": false,
          "internalType": "uint8",
          "name": "version",
          "type": "uint8"
        }
      ],
      "name": "Initialized",
      "type": "event"
    },
    {
      "anonymous": false,
      "inputs": [
        {
          "indexed": true,
          "internalType": "address",
          "name": "previousTarget",
          "type": "address"
        },
        {
          "indexed": true,
          "internalType": "address",
          "name": "newTarget",
          "type": "address"
        }
      ],
      "name": "TargetSet",
      "type": "event"
    },
    {
      "inputs": [],
      "name": "dao",
      "outputs": [
        {
          "internalType": "contract IDAO",
          "name": "",
          "type": "address"
        }
      ],
      "stateMutability": "view",
      "type": "function"
    },
    {
      "inputs": [
        {
          "internalType": "contract IDAO",
          "name": "_dao",
          "type": "address"
        }
      ],
      "name": "initialize",
      "outputs": [],
      "stateMutability": "nonpayable",
      "type": "function"
    },
    {
      "inputs": [],
      "name": "pluginType",
      "outputs": [
        {
          "internalType": "enum IPlugin.PluginType",
          "name": "",
          "type": "uint8"
        }
      ],
      "stateMutability": "pure",
      "type": "function"
    },
    {
      "inputs": [],
      "name": "protocolVersion",
      "outputs": [
        {
          "internalType": "uint8[3]",
          "name": "",
          "type": "uint8[3]"
        }
      ],
      "stateMutability": "pure",
      "type": "function"
    },
    {
      "inputs": [
        {
          "internalType": "address",
          "name": "_target",
          "type": "address"
        }
      ],
      "name": "setTarget",
      "outputs": [],
      "stateMutability": "nonpayable",
      "type": "function"
    },
    {
      "inputs": [],
      "name": "state1",
      "outputs": [
        {
          "internalType": "uint256",
          "name": "",
          "type": "uint256"
        }
      ],
      "stateMutability": "view",
      "type": "function"
    },
    {
      "inputs": [
        {
          "internalType": "bytes4",
          "name": "_interfaceId",
          "type": "bytes4"
        }
      ],
      "name": "supportsInterface",
      "outputs": [
        {
          "internalType": "bool",
          "name": "",
          "type": "bool"
        }
      ],
      "stateMutability": "view",
      "type": "function"
    },
    {
      "inputs": [],
      "name": "target",
      "outputs": [
        {
          "internalType": "address",
          "name": "",
          "type": "address"
        }
      ],
      "stateMutability": "view",
      "type": "function"
    }
  ],
  "bytecode": "0x608060405234801561001057600080fd5b5061001961001e565b6100dd565b600054610100900460ff161561008a5760405162461bcd60e51b815260206004820152602760248201527f496e697469616c697a61626c653a20636f6e747261637420697320696e697469604482015266616c697a696e6760c81b606482015260840160405180910390fd5b60005460ff908116146100db576000805460ff191660ff9081179091556040519081527f7f26b83ff96e1f2b6a682f133852f6798a09c465da95921460cefb38474024989060200160405180910390a15b565b610551806100ec6000396000f3fe608060405234801561001057600080fd5b50600436106100885760003560e01c80636accab8c1161005b5780636accab8c146100fe578063776d1a0114610115578063c4d66de81461012a578063d4b839921461013d57600080fd5b806301ffc9a71461008d5780632ae9c600146100b55780634162169f146100ca57806341de6830146100ef575b600080fd5b6100a061009b366004610485565b610150565b60405190151581526020015b60405180910390f35b6100bd6101a1565b6040516100ac91906104b6565b6065546001600160a01b03165b6040516001600160a01b0390911681526020016100ac565b60016040516100ac91906104ea565b61010760985481565b6040519081526020016100ac565b610128610123366004610527565b6101cb565b005b610128610138366004610527565b61022a565b6097546100d7906001600160a01b031681565b60006001600160e01b0319821663041de68360e41b148061018057506001600160e01b03198216621574e360e91b145b8061019b57506301ffc9a760e01b6001600160e01b03198316145b92915050565b6101a9610467565b5060408051606081018252600181526004602082015260009181019190915290565b609780546001600160a01b0383811673ffffffffffffffffffffffffffffffffffffffff19831681179093556040519116919082907f90cc2f570a6eb594b1580ea3e41247d2d73a55281889e86bd4ec2fc29c7e62d690600090a35050565b600054610100900460ff161580801561024a5750600054600160ff909116105b806102645750303b158015610264575060005460ff166001145b6102db5760405162461bcd60e51b815260206004820152602e60248201527f496e697469616c697a61626c653a20636f6e747261637420697320616c72656160448201527f647920696e697469616c697a656400000000000000000000000000000000000060648201526084015b60405180910390fd5b6000805460ff1916600117905580156102fe576000805461ff0019166101001790555b61030782610356565b60016098558015610352576000805461ff0019169055604051600181527f7f26b83ff96e1f2b6a682f133852f6798a09c465da95921460cefb38474024989060200160405180910390a15b5050565b600054610100900460ff166103c15760405162461bcd60e51b815260206004820152602b60248201527f496e697469616c697a61626c653a20636f6e7472616374206973206e6f74206960448201526a6e697469616c697a696e6760a81b60648201526084016102d2565b6103ca816103cd565b50565b600054610100900460ff166104385760405162461bcd60e51b815260206004820152602b60248201527f496e697469616c697a61626c653a20636f6e7472616374206973206e6f74206960448201526a6e697469616c697a696e6760a81b60648201526084016102d2565b6065805473ffffffffffffffffffffffffffffffffffffffff19166001600160a01b0392909216919091179055565b60405180606001604052806003906020820280368337509192915050565b60006020828403121561049757600080fd5b81356001600160e01b0319811681146104af57600080fd5b9392505050565b60608101818360005b60038110156104e157815160ff168352602092830192909101906001016104bf565b50505092915050565b602081016003831061050c57634e487b7160e01b600052602160045260246000fd5b91905290565b6001600160a01b03811681146103ca57600080fd5b60006020828403121561053957600080fd5b81356104af8161051256fea164736f6c6343000811000a",
  "linkReferences": {},
  "deployedLinkReferences": {}
}