{
  "_format": "hh-sol-artifact-1",
  "contractName": "ERC1155Mock",
  "sourceName": "src/mocks/token/ERC1155Mock.sol",
  "abi": [
    {
      "inputs": [
        {
          "internalType": "string",
          "name": "_uri",
          "type": "string"
        }
      ],
      "stateMutability": "nonpayable",
      "type": "constructor"
    },
    {
      "anonymous": false,
      "inputs": [
        {
          "indexed": true,
          "internalType": "address",
          "name": "account",
          "type": "address"
        },
        {
          "indexed": true,
          "internalType": "address",
          "name": "operator",
          "type": "address"
        },
        {
          "indexed": false,
          "internalType": "bool",
          "name": "approved",
          "type": "bool"
        }
      ],
      "name": "ApprovalForAll",
      "type": "event"
    },
    {
      "anonymous": false,
      "inputs": [
        {
          "indexed": true,
          "internalType": "address",
          "name": "operator",
          "type": "address"
        },
        {
          "indexed": true,
          "internalType": "address",
          "name": "from",
          "type": "address"
        },
        {
          "indexed": true,
          "internalType": "address",
          "name": "to",
          "type": "address"
        },
        {
          "indexed": false,
          "internalType": "uint256[]",
          "name": "ids",
          "type": "uint256[]"
        },
        {
          "indexed": false,
          "internalType": "uint256[]",
          "name": "values",
          "type": "uint256[]"
        }
      ],
      "name": "TransferBatch",
      "type": "event"
    },
    {
      "anonymous": false,
      "inputs": [
        {
          "indexed": true,
          "internalType": "address",
          "name": "operator",
          "type": "address"
        },
        {
          "indexed": true,
          "internalType": "address",
          "name": "from",
          "type": "address"
        },
        {
          "indexed": true,
          "internalType": "address",
          "name": "to",
          "type": "address"
        },
        {
          "indexed": false,
          "internalType": "uint256",
          "name": "id",
          "type": "uint256"
        },
        {
          "indexed": false,
          "internalType": "uint256",
          "name": "value",
          "type": "uint256"
        }
      ],
      "name": "TransferSingle",
      "type": "event"
    },
    {
      "anonymous": false,
      "inputs": [
        {
          "indexed": false,
          "internalType": "string",
          "name": "value",
          "type": "string"
        },
        {
          "indexed": true,
          "internalType": "uint256",
          "name": "id",
          "type": "uint256"
        }
      ],
      "name": "URI",
      "type": "event"
    },
    {
      "inputs": [
        {
          "internalType": "address",
          "name": "account",
          "type": "address"
        },
        {
          "internalType": "uint256",
          "name": "id",
          "type": "uint256"
        }
      ],
      "name": "balanceOf",
      "outputs": [
        {
          "internalType": "uint256",
          "name": "",
          "type": "uint256"
        }
      ],
      "stateMutability": "view",
      "type": "function"
    },
    {
      "inputs": [
        {
          "internalType": "address[]",
          "name": "accounts",
          "type": "address[]"
        },
        {
          "internalType": "uint256[]",
          "name": "ids",
          "type": "uint256[]"
        }
      ],
      "name": "balanceOfBatch",
      "outputs": [
        {
          "internalType": "uint256[]",
          "name": "",
          "type": "uint256[]"
        }
      ],
      "stateMutability": "view",
      "type": "function"
    },
    {
      "inputs": [
        {
          "internalType": "address",
          "name": "account",
          "type": "address"
        },
        {
          "internalType": "uint256",
          "name": "tokenId",
          "type": "uint256"
        },
        {
          "internalType": "uint256",
          "name": "amount",
          "type": "uint256"
        }
      ],
      "name": "burn",
      "outputs": [],
      "stateMutability": "nonpayable",
      "type": "function"
    },
    {
      "inputs": [
        {
          "internalType": "address",
          "name": "account",
          "type": "address"
        },
        {
          "internalType": "address",
          "name": "operator",
          "type": "address"
        }
      ],
      "name": "isApprovedForAll",
      "outputs": [
        {
          "internalType": "bool",
          "name": "",
          "type": "bool"
        }
      ],
      "stateMutability": "view",
      "type": "function"
    },
    {
      "inputs": [
        {
          "internalType": "address",
          "name": "account",
          "type": "address"
        },
        {
          "internalType": "uint256",
          "name": "tokenId",
          "type": "uint256"
        },
        {
          "internalType": "uint256",
          "name": "amount",
          "type": "uint256"
        }
      ],
      "name": "mint",
      "outputs": [],
      "stateMutability": "nonpayable",
      "type": "function"
    },
    {
      "inputs": [
        {
          "internalType": "address",
          "name": "from",
          "type": "address"
        },
        {
          "internalType": "address",
          "name": "to",
          "type": "address"
        },
        {
          "internalType": "uint256[]",
          "name": "ids",
          "type": "uint256[]"
        },
        {
          "internalType": "uint256[]",
          "name": "amounts",
          "type": "uint256[]"
        },
        {
          "internalType": "bytes",
          "name": "data",
          "type": "bytes"
        }
      ],
      "name": "safeBatchTransferFrom",
      "outputs": [],
      "stateMutability": "nonpayable",
      "type": "function"
    },
    {
      "inputs": [
        {
          "internalType": "address",
          "name": "from",
          "type": "address"
        },
        {
          "internalType": "address",
          "name": "to",
          "type": "address"
        },
        {
          "internalType": "uint256",
          "name": "id",
          "type": "uint256"
        },
        {
          "internalType": "uint256",
          "name": "amount",
          "type": "uint256"
        },
        {
          "internalType": "bytes",
          "name": "data",
          "type": "bytes"
        }
      ],
      "name": "safeTransferFrom",
      "outputs": [],
      "stateMutability": "nonpayable",
      "type": "function"
    },
    {
      "inputs": [
        {
          "internalType": "address",
          "name": "operator",
          "type": "address"
        },
        {
          "internalType": "bool",
          "name": "approved",
          "type": "bool"
        }
      ],
      "name": "setApprovalForAll",
      "outputs": [],
      "stateMutability": "nonpayable",
      "type": "function"
    },
    {
      "inputs": [
        {
          "internalType": "bytes4",
          "name": "interfaceId",
          "type": "bytes4"
        }
      ],
      "name": "supportsInterface",
      "outputs": [
        {
          "internalType": "bool",
          "name": "",
          "type": "bool"
        }
      ],
      "stateMutability": "view",
      "type": "function"
    },
    {
      "inputs": [
        {
          "internalType": "uint256",
          "name": "",
          "type": "uint256"
        }
      ],
      "name": "uri",
      "outputs": [
        {
          "internalType": "string",
          "name": "",
          "type": "string"
        }
      ],
      "stateMutability": "view",
      "type": "function"
    }
  ],
  "bytecode": "0x60806040523480156200001157600080fd5b5060405162001a8938038062001a89833981016040819052620000349162000070565b80620000408162000048565b5050620002a0565b6002620000568282620001d4565b5050565b634e487b7160e01b600052604160045260246000fd5b600060208083850312156200008457600080fd5b82516001600160401b03808211156200009c57600080fd5b818501915085601f830112620000b157600080fd5b815181811115620000c657620000c66200005a565b604051601f8201601f19908116603f01168101908382118183101715620000f157620000f16200005a565b8160405282815288868487010111156200010a57600080fd5b600093505b828410156200012e57848401860151818501870152928501926200010f565b600086848301015280965050505050505092915050565b600181811c908216806200015a57607f821691505b6020821081036200017b57634e487b7160e01b600052602260045260246000fd5b50919050565b601f821115620001cf57600081815260208120601f850160051c81016020861015620001aa5750805b601f850160051c820191505b81811015620001cb57828155600101620001b6565b5050505b505050565b81516001600160401b03811115620001f057620001f06200005a565b620002088162000201845462000145565b8462000181565b602080601f831160018114620002405760008415620002275750858301515b600019600386901b1c1916600185901b178555620001cb565b600085815260208120601f198616915b82811015620002715788860151825594840194600190910190840162000250565b5085821015620002905787850151600019600388901b60f8161c191681555b5050505050600190811b01905550565b6117d980620002b06000396000f3fe608060405234801561001057600080fd5b50600436106100bd5760003560e01c80634e1273f411610076578063e985e9c51161005b578063e985e9c514610186578063f242432a146101c2578063f5298aca146101d557600080fd5b80634e1273f414610153578063a22cb4651461017357600080fd5b80630e89341c116100a75780630e89341c1461010b578063156e29f61461012b5780632eb2c2d61461014057600080fd5b8062fdd58e146100c257806301ffc9a7146100e8575b600080fd5b6100d56100d03660046110b9565b6101e8565b6040519081526020015b60405180910390f35b6100fb6100f63660046110fc565b610294565b60405190151581526020016100df565b61011e610119366004611120565b6102e4565b6040516100df919061117f565b61013e610139366004611192565b610378565b005b61013e61014e366004611311565b610398565b6101666101613660046113bb565b61042b565b6040516100df91906114c1565b61013e6101813660046114d4565b610569565b6100fb610194366004611510565b6001600160a01b03918216600090815260016020908152604080832093909416825291909152205460ff1690565b61013e6101d0366004611543565b610578565b61013e6101e3366004611192565b610604565b60006001600160a01b03831661026b5760405162461bcd60e51b815260206004820152602a60248201527f455243313135353a2061646472657373207a65726f206973206e6f742061207660448201527f616c6964206f776e65720000000000000000000000000000000000000000000060648201526084015b60405180910390fd5b506000818152602081815260408083206001600160a01b03861684529091529020545b92915050565b60006001600160e01b03198216636cdb3d1360e11b14806102c557506001600160e01b031982166303a24d0760e21b145b8061028e57506301ffc9a760e01b6001600160e01b031983161461028e565b6060600280546102f3906115a8565b80601f016020809104026020016040519081016040528092919081815260200182805461031f906115a8565b801561036c5780601f106103415761010080835404028352916020019161036c565b820191906000526020600020905b81548152906001019060200180831161034f57829003601f168201915b50505050509050919050565b6103938383836040518060200160405280600081525061060f565b505050565b6001600160a01b0385163314806103b457506103b48533610194565b6104175760405162461bcd60e51b815260206004820152602e60248201527f455243313135353a2063616c6c6572206973206e6f7420746f6b656e206f776e60448201526d195c881bdc88185c1c1c9bdd995960921b6064820152608401610262565b6104248585858585610723565b5050505050565b606081518351146104a45760405162461bcd60e51b815260206004820152602960248201527f455243313135353a206163636f756e747320616e6420696473206c656e67746860448201527f206d69736d6174636800000000000000000000000000000000000000000000006064820152608401610262565b6000835167ffffffffffffffff8111156104c0576104c06111c5565b6040519080825280602002602001820160405280156104e9578160200160208202803683370190505b50905060005b84518110156105615761053485828151811061050d5761050d6115e2565b6020026020010151858381518110610527576105276115e2565b60200260200101516101e8565b828281518110610546576105466115e2565b602090810291909101015261055a8161160e565b90506104ef565b509392505050565b610574338383610996565b5050565b6001600160a01b03851633148061059457506105948533610194565b6105f75760405162461bcd60e51b815260206004820152602e60248201527f455243313135353a2063616c6c6572206973206e6f7420746f6b656e206f776e60448201526d195c881bdc88185c1c1c9bdd995960921b6064820152608401610262565b6104248585858585610a8a565b610393838383610c35565b6001600160a01b03841661066f5760405162461bcd60e51b815260206004820152602160248201527f455243313135353a206d696e7420746f20746865207a65726f206164647265736044820152607360f81b6064820152608401610262565b33600061067b85610db1565b9050600061068885610db1565b90506000868152602081815260408083206001600160a01b038b168452909152812080548792906106ba908490611627565b909155505060408051878152602081018790526001600160a01b03808a1692600092918716917fc3d58168c5ae7397731d063d5bbf3d657854427343f4c083240f7aacaa2d0f62910160405180910390a461071a83600089898989610dfc565b50505050505050565b815183511461079a5760405162461bcd60e51b815260206004820152602860248201527f455243313135353a2069647320616e6420616d6f756e7473206c656e6774682060448201527f6d69736d617463680000000000000000000000000000000000000000000000006064820152608401610262565b6001600160a01b0384166107fe5760405162461bcd60e51b815260206004820152602560248201527f455243313135353a207472616e7366657220746f20746865207a65726f206164604482015264647265737360d81b6064820152608401610262565b3360005b845181101561092857600085828151811061081f5761081f6115e2565b60200260200101519050600085838151811061083d5761083d6115e2565b602090810291909101810151600084815280835260408082206001600160a01b038e1683529093529190912054909150818110156108d05760405162461bcd60e51b815260206004820152602a60248201527f455243313135353a20696e73756666696369656e742062616c616e636520666f60448201526939103a3930b739b332b960b11b6064820152608401610262565b6000838152602081815260408083206001600160a01b038e8116855292528083208585039055908b1682528120805484929061090d908490611627565b92505081905550505050806109219061160e565b9050610802565b50846001600160a01b0316866001600160a01b0316826001600160a01b03167f4a39dc06d4c0dbc64b70af90fd698a233a518aa5d07e595d983b8c0526c8f7fb878760405161097892919061163a565b60405180910390a461098e818787878787610fa1565b505050505050565b816001600160a01b0316836001600160a01b031603610a1d5760405162461bcd60e51b815260206004820152602960248201527f455243313135353a2073657474696e6720617070726f76616c2073746174757360448201527f20666f722073656c6600000000000000000000000000000000000000000000006064820152608401610262565b6001600160a01b03838116600081815260016020908152604080832094871680845294825291829020805460ff191686151590811790915591519182527f17307eab39ab6107e8899845ad3d59bd9653f200f220920489ca2b5937696c31910160405180910390a3505050565b6001600160a01b038416610aee5760405162461bcd60e51b815260206004820152602560248201527f455243313135353a207472616e7366657220746f20746865207a65726f206164604482015264647265737360d81b6064820152608401610262565b336000610afa85610db1565b90506000610b0785610db1565b90506000868152602081815260408083206001600160a01b038c16845290915290205485811015610b8d5760405162461bcd60e51b815260206004820152602a60248201527f455243313135353a20696e73756666696369656e742062616c616e636520666f60448201526939103a3930b739b332b960b11b6064820152608401610262565b6000878152602081815260408083206001600160a01b038d8116855292528083208985039055908a16825281208054889290610bca908490611627565b909155505060408051888152602081018890526001600160a01b03808b16928c821692918816917fc3d58168c5ae7397731d063d5bbf3d657854427343f4c083240f7aacaa2d0f62910160405180910390a4610c2a848a8a8a8a8a610dfc565b505050505050505050565b6001600160a01b038316610c975760405162461bcd60e51b815260206004820152602360248201527f455243313135353a206275726e2066726f6d20746865207a65726f206164647260448201526265737360e81b6064820152608401610262565b336000610ca384610db1565b90506000610cb084610db1565b60408051602080820183526000918290528882528181528282206001600160a01b038b1683529052205490915084811015610d395760405162461bcd60e51b8152602060048201526024808201527f455243313135353a206275726e20616d6f756e7420657863656564732062616c604482015263616e636560e01b6064820152608401610262565b6000868152602081815260408083206001600160a01b038b81168086529184528285208a8703905582518b81529384018a90529092908816917fc3d58168c5ae7397731d063d5bbf3d657854427343f4c083240f7aacaa2d0f62910160405180910390a460408051602081019091526000905261071a565b60408051600180825281830190925260609160009190602080830190803683370190505090508281600081518110610deb57610deb6115e2565b602090810291909101015292915050565b6001600160a01b0384163b1561098e5760405163f23a6e6160e01b81526001600160a01b0385169063f23a6e6190610e409089908990889088908890600401611668565b6020604051808303816000875af1925050508015610e7b575060408051601f3d908101601f19168201909252610e78918101906116ab565b60015b610f3057610e876116c8565b806308c379a003610ec05750610e9b6116e4565b80610ea65750610ec2565b8060405162461bcd60e51b8152600401610262919061117f565b505b60405162461bcd60e51b815260206004820152603460248201527f455243313135353a207472616e7366657220746f206e6f6e2d4552433131353560448201527f526563656976657220696d706c656d656e7465720000000000000000000000006064820152608401610262565b6001600160e01b0319811663f23a6e6160e01b1461071a5760405162461bcd60e51b815260206004820152602860248201527f455243313135353a204552433131353552656365697665722072656a656374656044820152676420746f6b656e7360c01b6064820152608401610262565b6001600160a01b0384163b1561098e5760405163bc197c8160e01b81526001600160a01b0385169063bc197c8190610fe5908990899088908890889060040161176e565b6020604051808303816000875af1925050508015611020575060408051601f3d908101601f1916820190925261101d918101906116ab565b60015b61102c57610e876116c8565b6001600160e01b0319811663bc197c8160e01b1461071a5760405162461bcd60e51b815260206004820152602860248201527f455243313135353a204552433131353552656365697665722072656a656374656044820152676420746f6b656e7360c01b6064820152608401610262565b80356001600160a01b03811681146110b457600080fd5b919050565b600080604083850312156110cc57600080fd5b6110d58361109d565b946020939093013593505050565b6001600160e01b0319811681146110f957600080fd5b50565b60006020828403121561110e57600080fd5b8135611119816110e3565b9392505050565b60006020828403121561113257600080fd5b5035919050565b6000815180845260005b8181101561115f57602081850181015186830182015201611143565b506000602082860101526020601f19601f83011685010191505092915050565b6020815260006111196020830184611139565b6000806000606084860312156111a757600080fd5b6111b08461109d565b95602085013595506040909401359392505050565b634e487b7160e01b600052604160045260246000fd5b601f8201601f1916810167ffffffffffffffff81118282101715611201576112016111c5565b6040525050565b600067ffffffffffffffff821115611222576112226111c5565b5060051b60200190565b600082601f83011261123d57600080fd5b8135602061124a82611208565b60405161125782826111db565b83815260059390931b850182019282810191508684111561127757600080fd5b8286015b84811015611292578035835291830191830161127b565b509695505050505050565b600082601f8301126112ae57600080fd5b813567ffffffffffffffff8111156112c8576112c86111c5565b6040516112df601f8301601f1916602001826111db565b8181528460208386010111156112f457600080fd5b816020850160208301376000918101602001919091529392505050565b600080600080600060a0868803121561132957600080fd5b6113328661109d565b94506113406020870161109d565b9350604086013567ffffffffffffffff8082111561135d57600080fd5b61136989838a0161122c565b9450606088013591508082111561137f57600080fd5b61138b89838a0161122c565b935060808801359150808211156113a157600080fd5b506113ae8882890161129d565b9150509295509295909350565b600080604083850312156113ce57600080fd5b823567ffffffffffffffff808211156113e657600080fd5b818501915085601f8301126113fa57600080fd5b8135602061140782611208565b60405161141482826111db565b83815260059390931b850182019282810191508984111561143457600080fd5b948201945b838610156114595761144a8661109d565b82529482019490820190611439565b9650508601359250508082111561146f57600080fd5b5061147c8582860161122c565b9150509250929050565b600081518084526020808501945080840160005b838110156114b65781518752958201959082019060010161149a565b509495945050505050565b6020815260006111196020830184611486565b600080604083850312156114e757600080fd5b6114f08361109d565b91506020830135801515811461150557600080fd5b809150509250929050565b6000806040838503121561152357600080fd5b61152c8361109d565b915061153a6020840161109d565b90509250929050565b600080600080600060a0868803121561155b57600080fd5b6115648661109d565b94506115726020870161109d565b93506040860135925060608601359150608086013567ffffffffffffffff81111561159c57600080fd5b6113ae8882890161129d565b600181811c908216806115bc57607f821691505b6020821081036115dc57634e487b7160e01b600052602260045260246000fd5b50919050565b634e487b7160e01b600052603260045260246000fd5b634e487b7160e01b600052601160045260246000fd5b600060018201611620576116206115f8565b5060010190565b8082018082111561028e5761028e6115f8565b60408152600061164d6040830185611486565b828103602084015261165f8185611486565b95945050505050565b60006001600160a01b03808816835280871660208401525084604083015283606083015260a060808301526116a060a0830184611139565b979650505050505050565b6000602082840312156116bd57600080fd5b8151611119816110e3565b600060033d11156116e15760046000803e5060005160e01c5b90565b600060443d10156116f25790565b6040516003193d81016004833e81513d67ffffffffffffffff816024840111818411171561172257505050505090565b828501915081518181111561173a5750505050505090565b843d87010160208285010111156117545750505050505090565b611763602082860101876111db565b509095945050505050565b60006001600160a01b03808816835280871660208401525060a0604083015261179a60a0830186611486565b82810360608401526117ac8186611486565b905082810360808401526117c08185611139565b9897505050505050505056fea164736f6c6343000811000a",
  "linkReferences": {},
  "deployedLinkReferences": {}
}