{
  "_format": "hh-sol-artifact-1",
  "contractName": "PluginUUPSUpgradeableSetupMockBuild1",
  "sourceName": "src/mocks/plugin/PluginUUPSUpgradeableSetupMock.sol",
  "abi": [
    {
      "inputs": [],
      "stateMutability": "nonpayable",
      "type": "constructor"
    },
    {
      "inputs": [],
      "name": "ConflictingValues",
      "type": "error"
    },
    {
      "inputs": [
        {
          "internalType": "uint16",
          "name": "fromBuild",
          "type": "uint16"
        },
        {
          "internalType": "uint16",
          "name": "thisBuild",
          "type": "uint16"
        }
      ],
      "name": "InvalidUpdatePath",
      "type": "error"
    },
    {
      "inputs": [],
      "name": "implementation",
      "outputs": [
        {
          "internalType": "address",
          "name": "",
          "type": "address"
        }
      ],
      "stateMutability": "view",
      "type": "function"
    },
    {
      "inputs": [
        {
          "internalType": "address",
          "name": "_dao",
          "type": "address"
        },
        {
          "internalType": "bytes",
          "name": "",
          "type": "bytes"
        }
      ],
      "name": "prepareInstallation",
      "outputs": [
        {
          "internalType": "address",
          "name": "plugin",
          "type": "address"
        },
        {
          "components": [
            {
              "internalType": "address[]",
              "name": "helpers",
              "type": "address[]"
            },
            {
              "components": [
                {
                  "internalType": "enum PermissionLib.Operation",
                  "name": "operation",
                  "type": "uint8"
                },
                {
                  "internalType": "address",
                  "name": "where",
                  "type": "address"
                },
                {
                  "internalType": "address",
                  "name": "who",
                  "type": "address"
                },
                {
                  "internalType": "address",
                  "name": "condition",
                  "type": "address"
                },
                {
                  "internalType": "bytes32",
                  "name": "permissionId",
                  "type": "bytes32"
                }
              ],
              "internalType": "struct PermissionLib.MultiTargetPermission[]",
              "name": "permissions",
              "type": "tuple[]"
            }
          ],
          "internalType": "struct IPluginSetup.PreparedSetupData",
          "name": "preparedSetupData",
          "type": "tuple"
        }
      ],
      "stateMutability": "nonpayable",
      "type": "function"
    },
    {
      "inputs": [
        {
          "internalType": "address",
          "name": "_dao",
          "type": "address"
        },
        {
          "components": [
            {
              "internalType": "address",
              "name": "plugin",
              "type": "address"
            },
            {
              "internalType": "address[]",
              "name": "currentHelpers",
              "type": "address[]"
            },
            {
              "internalType": "bytes",
              "name": "data",
              "type": "bytes"
            }
          ],
          "internalType": "struct IPluginSetup.SetupPayload",
          "name": "_payload",
          "type": "tuple"
        }
      ],
      "name": "prepareUninstallation",
      "outputs": [
        {
          "components": [
            {
              "internalType": "enum PermissionLib.Operation",
              "name": "operation",
              "type": "uint8"
            },
            {
              "internalType": "address",
              "name": "where",
              "type": "address"
            },
            {
              "internalType": "address",
              "name": "who",
              "type": "address"
            },
            {
              "internalType": "address",
              "name": "condition",
              "type": "address"
            },
            {
              "internalType": "bytes32",
              "name": "permissionId",
              "type": "bytes32"
            }
          ],
          "internalType": "struct PermissionLib.MultiTargetPermission[]",
          "name": "permissions",
          "type": "tuple[]"
        }
      ],
      "stateMutability": "pure",
      "type": "function"
    },
    {
      "inputs": [
        {
          "internalType": "address",
          "name": "_dao",
          "type": "address"
        },
        {
          "internalType": "uint16",
          "name": "_fromBuild",
          "type": "uint16"
        },
        {
          "components": [
            {
              "internalType": "address",
              "name": "plugin",
              "type": "address"
            },
            {
              "internalType": "address[]",
              "name": "currentHelpers",
              "type": "address[]"
            },
            {
              "internalType": "bytes",
              "name": "data",
              "type": "bytes"
            }
          ],
          "internalType": "struct IPluginSetup.SetupPayload",
          "name": "_payload",
          "type": "tuple"
        }
      ],
      "name": "prepareUpdate",
      "outputs": [
        {
          "internalType": "bytes",
          "name": "",
          "type": "bytes"
        },
        {
          "components": [
            {
              "internalType": "address[]",
              "name": "helpers",
              "type": "address[]"
            },
            {
              "components": [
                {
                  "internalType": "enum PermissionLib.Operation",
                  "name": "operation",
                  "type": "uint8"
                },
                {
                  "internalType": "address",
                  "name": "where",
                  "type": "address"
                },
                {
                  "internalType": "address",
                  "name": "who",
                  "type": "address"
                },
                {
                  "internalType": "address",
                  "name": "condition",
                  "type": "address"
                },
                {
                  "internalType": "bytes32",
                  "name": "permissionId",
                  "type": "bytes32"
                }
              ],
              "internalType": "struct PermissionLib.MultiTargetPermission[]",
              "name": "permissions",
              "type": "tuple[]"
            }
          ],
          "internalType": "struct IPluginSetup.PreparedSetupData",
          "name": "",
          "type": "tuple"
        }
      ],
      "stateMutability": "pure",
      "type": "function"
    },
    {
      "inputs": [],
      "name": "protocolVersion",
      "outputs": [
        {
          "internalType": "uint8[3]",
          "name": "",
          "type": "uint8[3]"
        }
      ],
      "stateMutability": "pure",
      "type": "function"
    },
    {
      "inputs": [
        {
          "internalType": "bytes4",
          "name": "_interfaceId",
          "type": "bytes4"
        }
      ],
      "name": "supportsInterface",
      "outputs": [
        {
          "internalType": "bool",
          "name": "",
          "type": "bool"
        }
      ],
      "stateMutability": "view",
      "type": "function"
    }
  ],
  "bytecode": "0x60a060405234801561001057600080fd5b5060405161001d9061004b565b604051809103906000f080158015610039573d6000803e3d6000fd5b506001600160a01b0316608052610058565b6112c88061126083390190565b6080516111e76100796000396000818160d201526102d301526111e76000f3fe60806040523480156200001157600080fd5b50600436106200007b5760003560e01c80639cb0a12411620000565780639cb0a12414620000fd578063a8a9c29e1462000123578063f10832f1146200014a57600080fd5b806301ffc9a714620000805780632ae9c60014620000ac5780635c60da1b14620000c5575b600080fd5b6200009762000091366004620005f8565b62000171565b60405190151581526020015b60405180910390f35b620000b6620001c4565b604051620000a3919062000624565b6040516001600160a01b037f0000000000000000000000000000000000000000000000000000000000000000168152602001620000a3565b620001146200010e3660046200068a565b620001f0565b604051620000a391906200075b565b6200013a62000134366004620007a8565b62000208565b604051620000a3929190620008f7565b620001616200015b3660046200093f565b6200024f565b604051620000a392919062000a0d565b60006001600160e01b0319821663099718b560e41b1480620001a257506001600160e01b03198216621574e360e91b145b80620001be57506301ffc9a760e01b6001600160e01b03198316145b92915050565b620001ce620005cc565b5060408051606081018252600181526004602082015260009181019190915290565b606062000201600060018062000333565b9392505050565b606062000228604051806040016040528060608152602001606081525090565b60405163098990c560e11b8152600060048201526001602482015260440160405180910390fd5b60006200026f604051806040016040528060608152602001606081525090565b6040516001600160a01b038516602482015260009060440160408051601f198184030181529190526020810180517bffffffffffffffffffffffffffffffffffffffffffffffffffffffff1663189acdbd60e31b17905290506200030581620002f57f000000000000000000000000000000000000000000000000000000000000000090565b6001600160a01b031690620004cc565b925062000313600162000508565b825262000324600060018162000333565b60208301525090939092509050565b6060826001600160a01b0316846001600160a01b031611156200036957604051633a4013cd60e21b815260040160405180910390fd5b62000375848462000a4f565b6001600160a01b031667ffffffffffffffff81111562000399576200039962000929565b604051908082528060200260200182016040528015620003f457816020015b6040805160a081018252600080825260208083018290529282018190526060820181905260808201528252600019909201910181620003b85790505b509050835b836001600160a01b0316816001600160a01b03161015620004c4576040518060a00160405280846002811115620004345762000434620006de565b81526001600160a01b038316602082018190526040820152600060608201527fa280eec51ab8e1bc4b6b0c1b7f1bde785761b787a49db404e3e9338ed9b016ef6080909101528262000487878462000a4f565b6001600160a01b031681518110620004a357620004a362000a79565b60200260200101819052508080620004bb9062000a8f565b915050620003f9565b509392505050565b60008282604051620004de90620005ea565b620004eb92919062000ab8565b604051809103906000f080158015620004c4573d6000803e3d6000fd5b6060816001600160a01b031667ffffffffffffffff8111156200052f576200052f62000929565b60405190808252806020026020018201604052801562000559578160200160208202803683370190505b50905060005b826001600160a01b0316816001600160a01b03161015620005c6578082826001600160a01b03168151811062000599576200059962000a79565b6001600160a01b039092166020928302919091019091015280620005bd8162000a8f565b9150506200055f565b50919050565b60405180606001604052806003906020820280368337509192915050565b6106fe8062000add83390190565b6000602082840312156200060b57600080fd5b81356001600160e01b0319811681146200020157600080fd5b60608101818360005b60038110156200065157815160ff168352602092830192909101906001016200062d565b50505092915050565b80356001600160a01b03811681146200067257600080fd5b919050565b600060608284031215620005c657600080fd5b600080604083850312156200069e57600080fd5b620006a9836200065a565b9150602083013567ffffffffffffffff811115620006c657600080fd5b620006d48582860162000677565b9150509250929050565b634e487b7160e01b600052602160045260246000fd5b60008151600381106200071757634e487b7160e01b600052602160045260246000fd5b8352506020818101516001600160a01b0390811691840191909152604080830151821690840152606080830151909116908301526080908101519082015260a00190565b6020808252825182820181905260009190848201906040850190845b818110156200079c576200078d838551620006f4565b93850193925060010162000777565b50909695505050505050565b600080600060608486031215620007be57600080fd5b620007c9846200065a565b9250602084013561ffff81168114620007e157600080fd5b9150604084013567ffffffffffffffff811115620007fe57600080fd5b6200080c8682870162000677565b9150509250925092565b6000815180845260005b818110156200083e5760208185018101518683018201520162000820565b506000602082860101526020601f19601f83011685010191505092915050565b805160408084528151908401819052600091602091908201906060860190845b81811015620008a55783516001600160a01b0316835292840192918401916001016200087e565b50508483015186820387850152805180835290840192506000918401905b80831015620008ec57620008d9828551620006f4565b91508484019350600183019250620008c3565b509695505050505050565b6040815260006200090c604083018562000816565b82810360208401526200092081856200085e565b95945050505050565b634e487b7160e01b600052604160045260246000fd5b600080604083850312156200095357600080fd5b6200095e836200065a565b9150602083013567ffffffffffffffff808211156200097c57600080fd5b818501915085601f8301126200099157600080fd5b813581811115620009a657620009a662000929565b604051601f8201601f19908116603f01168101908382118183101715620009d157620009d162000929565b81604052828152886020848701011115620009eb57600080fd5b8260208601602083013760006020848301015280955050505050509250929050565b6001600160a01b038316815260406020820152600062000a3160408301846200085e565b949350505050565b634e487b7160e01b600052601160045260246000fd5b6001600160a01b0382811682821603908082111562000a725762000a7262000a39565b5092915050565b634e487b7160e01b600052603260045260246000fd5b60006001600160a01b0380831681810362000aae5762000aae62000a39565b6001019392505050565b6001600160a01b038316815260406020820152600062000a3160408301846200081656fe60806040526040516106fe3803806106fe83398101604081905261002291610319565b61002e82826000610035565b5050610436565b61003e8361006b565b60008251118061004b5750805b156100665761006483836100ab60201b6100291760201c565b505b505050565b610074816100d7565b6040516001600160a01b038216907fbc7cd75a20ee27fd9adebab32041f755214dbc6bffa90cc0225b39da2e5c2d3b90600090a250565b60606100d083836040518060600160405280602781526020016106d7602791396101a9565b9392505050565b6100ea8161022260201b6100551760201c565b6101515760405162461bcd60e51b815260206004820152602d60248201527f455243313936373a206e657720696d706c656d656e746174696f6e206973206e60448201526c1bdd08184818dbdb9d1c9858dd609a1b60648201526084015b60405180910390fd5b806101887f360894a13ba1a3210667c828492db98dca3e2076cc3735a920a3ca505d382bbc60001b61023160201b6100641760201c565b80546001600160a01b0319166001600160a01b039290921691909117905550565b6060600080856001600160a01b0316856040516101c691906103e7565b600060405180830381855af49150503d8060008114610201576040519150601f19603f3d011682016040523d82523d6000602084013e610206565b606091505b50909250905061021886838387610234565b9695505050505050565b6001600160a01b03163b151590565b90565b606083156102a357825160000361029c576001600160a01b0385163b61029c5760405162461bcd60e51b815260206004820152601d60248201527f416464726573733a2063616c6c20746f206e6f6e2d636f6e74726163740000006044820152606401610148565b50816102ad565b6102ad83836102b5565b949350505050565b8151156102c55781518083602001fd5b8060405162461bcd60e51b81526004016101489190610403565b634e487b7160e01b600052604160045260246000fd5b60005b838110156103105781810151838201526020016102f8565b50506000910152565b6000806040838503121561032c57600080fd5b82516001600160a01b038116811461034357600080fd5b60208401519092506001600160401b038082111561036057600080fd5b818501915085601f83011261037457600080fd5b815181811115610386576103866102df565b604051601f8201601f19908116603f011681019083821181831017156103ae576103ae6102df565b816040528281528860208487010111156103c757600080fd5b6103d88360208301602088016102f5565b80955050505050509250929050565b600082516103f98184602087016102f5565b9190910192915050565b60208152600082518060208401526104228160408501602087016102f5565b601f01601f19169190910160400192915050565b610292806104456000396000f3fe60806040523661001357610011610017565b005b6100115b610027610022610067565b61009f565b565b606061004e838360405180606001604052806027815260200161025f602791396100c3565b9392505050565b6001600160a01b03163b151590565b90565b600061009a7f360894a13ba1a3210667c828492db98dca3e2076cc3735a920a3ca505d382bbc546001600160a01b031690565b905090565b3660008037600080366000845af43d6000803e8080156100be573d6000f35b3d6000fd5b6060600080856001600160a01b0316856040516100e0919061020f565b600060405180830381855af49150503d806000811461011b576040519150601f19603f3d011682016040523d82523d6000602084013e610120565b606091505b50915091506101318683838761013b565b9695505050505050565b606083156101af5782516000036101a8576001600160a01b0385163b6101a85760405162461bcd60e51b815260206004820152601d60248201527f416464726573733a2063616c6c20746f206e6f6e2d636f6e747261637400000060448201526064015b60405180910390fd5b50816101b9565b6101b983836101c1565b949350505050565b8151156101d15781518083602001fd5b8060405162461bcd60e51b815260040161019f919061022b565b60005b838110156102065781810151838201526020016101ee565b50506000910152565b600082516102218184602087016101eb565b9190910192915050565b602081526000825180602084015261024a8160408501602087016101eb565b601f01601f1916919091016040019291505056fe416464726573733a206c6f772d6c6576656c2064656c65676174652063616c6c206661696c6564a164736f6c6343000811000a416464726573733a206c6f772d6c6576656c2064656c65676174652063616c6c206661696c6564a164736f6c6343000811000a60a06040523060805234801561001457600080fd5b5061001d610022565b6100e1565b600054610100900460ff161561008e5760405162461bcd60e51b815260206004820152602760248201527f496e697469616c697a61626c653a20636f6e747261637420697320696e697469604482015266616c697a696e6760c81b606482015260840160405180910390fd5b60005460ff908116146100df576000805460ff191660ff9081179091556040519081527f7f26b83ff96e1f2b6a682f133852f6798a09c465da95921460cefb38474024989060200160405180910390a15b565b6080516111b061011860003960008181610334015281816103be015281816104b401528181610539015261062301526111b06000f3fe6080604052600436106100d25760003560e01c806352d1902d1161007f578063776d1a0111610059578063776d1a0114610200578063c4d66de814610220578063c9c4bfca14610240578063d4b839921461027457600080fd5b806352d1902d146101b15780635c60da1b146101d45780636accab8c146101e957600080fd5b80634162169f116100b05780634162169f1461015057806341de6830146101825780634f1ef2861461019e57600080fd5b806301ffc9a7146100d75780632ae9c6001461010c5780633659cfe61461012e575b600080fd5b3480156100e357600080fd5b506100f76100f2366004610ee8565b610294565b60405190151581526020015b60405180910390f35b34801561011857600080fd5b50610121610300565b6040516101039190610f12565b34801561013a57600080fd5b5061014e610149366004610f5b565b61032a565b005b34801561015c57600080fd5b5060c9546001600160a01b03165b6040516001600160a01b039091168152602001610103565b34801561018e57600080fd5b5060006040516101039190610f78565b61014e6101ac366004610fb6565b6104aa565b3480156101bd57600080fd5b506101c6610616565b604051908152602001610103565b3480156101e057600080fd5b5061016a6106db565b3480156101f557600080fd5b506101c661012d5481565b34801561020c57600080fd5b5061014e61021b366004610f5b565b610713565b34801561022c57600080fd5b5061014e61023b366004610f5b565b610772565b34801561024c57600080fd5b506101c67f821b6e3a557148015a918c89e5d092e878a69854a2d1a410635f771bd5a8a3f581565b34801561028057600080fd5b5060fb5461016a906001600160a01b031681565b60006001600160e01b0319821663041de68360e41b14806102c457506001600160e01b03198216621574e360e91b145b806102df57506001600160e01b031982166352d1902d60e01b145b806102fa57506301ffc9a760e01b6001600160e01b03198316145b92915050565b610308610eca565b5060408051606081018252600181526004602082015260009181019190915290565b6001600160a01b037f00000000000000000000000000000000000000000000000000000000000000001630036103bc5760405162461bcd60e51b815260206004820152602c60248201527f46756e6374696f6e206d7573742062652063616c6c6564207468726f7567682060448201526b19195b1959d85d1958d85b1b60a21b60648201526084015b60405180910390fd5b7f00000000000000000000000000000000000000000000000000000000000000006001600160a01b03166104177f360894a13ba1a3210667c828492db98dca3e2076cc3735a920a3ca505d382bbc546001600160a01b031690565b6001600160a01b0316146104825760405162461bcd60e51b815260206004820152602c60248201527f46756e6374696f6e206d7573742062652063616c6c6564207468726f7567682060448201526b6163746976652070726f787960a01b60648201526084016103b3565b61048b81610899565b604080516000808252602082019092526104a7918391906108d6565b50565b6001600160a01b037f00000000000000000000000000000000000000000000000000000000000000001630036105375760405162461bcd60e51b815260206004820152602c60248201527f46756e6374696f6e206d7573742062652063616c6c6564207468726f7567682060448201526b19195b1959d85d1958d85b1b60a21b60648201526084016103b3565b7f00000000000000000000000000000000000000000000000000000000000000006001600160a01b03166105927f360894a13ba1a3210667c828492db98dca3e2076cc3735a920a3ca505d382bbc546001600160a01b031690565b6001600160a01b0316146105fd5760405162461bcd60e51b815260206004820152602c60248201527f46756e6374696f6e206d7573742062652063616c6c6564207468726f7567682060448201526b6163746976652070726f787960a01b60648201526084016103b3565b61060682610899565b610612828260016108d6565b5050565b6000306001600160a01b037f000000000000000000000000000000000000000000000000000000000000000016146106b65760405162461bcd60e51b815260206004820152603860248201527f555550535570677261646561626c653a206d757374206e6f742062652063616c60448201527f6c6564207468726f7567682064656c656761746563616c6c000000000000000060648201526084016103b3565b507f360894a13ba1a3210667c828492db98dca3e2076cc3735a920a3ca505d382bbc90565b600061070e7f360894a13ba1a3210667c828492db98dca3e2076cc3735a920a3ca505d382bbc546001600160a01b031690565b905090565b60fb80546001600160a01b0383811673ffffffffffffffffffffffffffffffffffffffff19831681179093556040519116919082907f90cc2f570a6eb594b1580ea3e41247d2d73a55281889e86bd4ec2fc29c7e62d690600090a35050565b600054610100900460ff16158080156107925750600054600160ff909116105b806107ac5750303b1580156107ac575060005460ff166001145b61081e5760405162461bcd60e51b815260206004820152602e60248201527f496e697469616c697a61626c653a20636f6e747261637420697320616c72656160448201527f647920696e697469616c697a656400000000000000000000000000000000000060648201526084016103b3565b6000805460ff191660011790558015610841576000805461ff0019166101001790555b61084a82610a7b565b600161012d558015610612576000805461ff0019169055604051600181527f7f26b83ff96e1f2b6a682f133852f6798a09c465da95921460cefb38474024989060200160405180910390a15050565b60c9547f821b6e3a557148015a918c89e5d092e878a69854a2d1a410635f771bd5a8a3f590610612906001600160a01b0316303384600036610aef565b7f4910fdfa16fed3260ed0e7147f7cc6da11a60208b5b9406d12a635614ffd91435460ff161561090e5761090983610bab565b505050565b826001600160a01b03166352d1902d6040518163ffffffff1660e01b8152600401602060405180830381865afa925050508015610968575060408051601f3d908101601f191682019092526109659181019061107a565b60015b6109da5760405162461bcd60e51b815260206004820152602e60248201527f45524331393637557067726164653a206e657720696d706c656d656e7461746960448201527f6f6e206973206e6f74205555505300000000000000000000000000000000000060648201526084016103b3565b7f360894a13ba1a3210667c828492db98dca3e2076cc3735a920a3ca505d382bbc8114610a6f5760405162461bcd60e51b815260206004820152602960248201527f45524331393637557067726164653a20756e737570706f727465642070726f7860448201527f6961626c6555554944000000000000000000000000000000000000000000000060648201526084016103b3565b50610909838383610c76565b600054610100900460ff16610ae65760405162461bcd60e51b815260206004820152602b60248201527f496e697469616c697a61626c653a20636f6e7472616374206973206e6f74206960448201526a6e697469616c697a696e6760a81b60648201526084016103b3565b6104a781610ca1565b604051637ef7c88360e11b81526001600160a01b0387169063fdef910690610b239088908890889088908890600401611093565b602060405180830381865afa158015610b40573d6000803e3d6000fd5b505050506040513d601f19601f82011682018060405250810190610b6491906110e7565b610ba357604051630cb6f8ed60e21b81526001600160a01b038088166004830152808716602483015285166044820152606481018490526084016103b3565b505050505050565b6001600160a01b0381163b610c285760405162461bcd60e51b815260206004820152602d60248201527f455243313936373a206e657720696d706c656d656e746174696f6e206973206e60448201527f6f74206120636f6e74726163740000000000000000000000000000000000000060648201526084016103b3565b7f360894a13ba1a3210667c828492db98dca3e2076cc3735a920a3ca505d382bbc805473ffffffffffffffffffffffffffffffffffffffff19166001600160a01b0392909216919091179055565b610c7f83610d3b565b600082511180610c8c5750805b1561090957610c9b8383610d7b565b50505050565b600054610100900460ff16610d0c5760405162461bcd60e51b815260206004820152602b60248201527f496e697469616c697a61626c653a20636f6e7472616374206973206e6f74206960448201526a6e697469616c697a696e6760a81b60648201526084016103b3565b60c9805473ffffffffffffffffffffffffffffffffffffffff19166001600160a01b0392909216919091179055565b610d4481610bab565b6040516001600160a01b038216907fbc7cd75a20ee27fd9adebab32041f755214dbc6bffa90cc0225b39da2e5c2d3b90600090a250565b6060610da0838360405180606001604052806027815260200161117d60279139610da7565b9392505050565b6060600080856001600160a01b031685604051610dc4919061112d565b600060405180830381855af49150503d8060008114610dff576040519150601f19603f3d011682016040523d82523d6000602084013e610e04565b606091505b5091509150610e1586838387610e1f565b9695505050505050565b60608315610e8e578251600003610e87576001600160a01b0385163b610e875760405162461bcd60e51b815260206004820152601d60248201527f416464726573733a2063616c6c20746f206e6f6e2d636f6e747261637400000060448201526064016103b3565b5081610e98565b610e988383610ea0565b949350505050565b815115610eb05781518083602001fd5b8060405162461bcd60e51b81526004016103b39190611149565b60405180606001604052806003906020820280368337509192915050565b600060208284031215610efa57600080fd5b81356001600160e01b031981168114610da057600080fd5b60608101818360005b6003811015610f3d57815160ff16835260209283019290910190600101610f1b565b50505092915050565b6001600160a01b03811681146104a757600080fd5b600060208284031215610f6d57600080fd5b8135610da081610f46565b6020810160038310610f9a57634e487b7160e01b600052602160045260246000fd5b91905290565b634e487b7160e01b600052604160045260246000fd5b60008060408385031215610fc957600080fd5b8235610fd481610f46565b9150602083013567ffffffffffffffff80821115610ff157600080fd5b818501915085601f83011261100557600080fd5b81358181111561101757611017610fa0565b604051601f8201601f19908116603f0116810190838211818310171561103f5761103f610fa0565b8160405282815288602084870101111561105857600080fd5b8260208601602083013760006020848301015280955050505050509250929050565b60006020828403121561108c57600080fd5b5051919050565b60006001600160a01b03808816835280871660208401525084604083015260806060830152826080830152828460a0840137600060a0848401015260a0601f19601f85011683010190509695505050505050565b6000602082840312156110f957600080fd5b81518015158114610da057600080fd5b60005b8381101561112457818101518382015260200161110c565b50506000910152565b6000825161113f818460208701611109565b9190910192915050565b6020815260008251806020840152611168816040850160208701611109565b601f01601f1916919091016040019291505056fe416464726573733a206c6f772d6c6576656c2064656c65676174652063616c6c206661696c6564a164736f6c6343000811000a",
  "linkReferences": {},
  "deployedLinkReferences": {}
}