{
  "_format": "hh-sol-artifact-1",
  "contractName": "PluginUUPSUpgradeableSetupMockBuild3",
  "sourceName": "src/mocks/plugin/PluginUUPSUpgradeableSetupMock.sol",
  "abi": [
    {
      "inputs": [],
      "stateMutability": "nonpayable",
      "type": "constructor"
    },
    {
      "inputs": [],
      "name": "ConflictingValues",
      "type": "error"
    },
    {
      "inputs": [
        {
          "internalType": "uint16",
          "name": "fromBuild",
          "type": "uint16"
        },
        {
          "internalType": "uint16",
          "name": "thisBuild",
          "type": "uint16"
        }
      ],
      "name": "InvalidUpdatePath",
      "type": "error"
    },
    {
      "inputs": [],
      "name": "implementation",
      "outputs": [
        {
          "internalType": "address",
          "name": "",
          "type": "address"
        }
      ],
      "stateMutability": "view",
      "type": "function"
    },
    {
      "inputs": [
        {
          "internalType": "address",
          "name": "_dao",
          "type": "address"
        },
        {
          "internalType": "bytes",
          "name": "",
          "type": "bytes"
        }
      ],
      "name": "prepareInstallation",
      "outputs": [
        {
          "internalType": "address",
          "name": "plugin",
          "type": "address"
        },
        {
          "components": [
            {
              "internalType": "address[]",
              "name": "helpers",
              "type": "address[]"
            },
            {
              "components": [
                {
                  "internalType": "enum PermissionLib.Operation",
                  "name": "operation",
                  "type": "uint8"
                },
                {
                  "internalType": "address",
                  "name": "where",
                  "type": "address"
                },
                {
                  "internalType": "address",
                  "name": "who",
                  "type": "address"
                },
                {
                  "internalType": "address",
                  "name": "condition",
                  "type": "address"
                },
                {
                  "internalType": "bytes32",
                  "name": "permissionId",
                  "type": "bytes32"
                }
              ],
              "internalType": "struct PermissionLib.MultiTargetPermission[]",
              "name": "permissions",
              "type": "tuple[]"
            }
          ],
          "internalType": "struct IPluginSetup.PreparedSetupData",
          "name": "preparedSetupData",
          "type": "tuple"
        }
      ],
      "stateMutability": "nonpayable",
      "type": "function"
    },
    {
      "inputs": [
        {
          "internalType": "address",
          "name": "_dao",
          "type": "address"
        },
        {
          "components": [
            {
              "internalType": "address",
              "name": "plugin",
              "type": "address"
            },
            {
              "internalType": "address[]",
              "name": "currentHelpers",
              "type": "address[]"
            },
            {
              "internalType": "bytes",
              "name": "data",
              "type": "bytes"
            }
          ],
          "internalType": "struct IPluginSetup.SetupPayload",
          "name": "_payload",
          "type": "tuple"
        }
      ],
      "name": "prepareUninstallation",
      "outputs": [
        {
          "components": [
            {
              "internalType": "enum PermissionLib.Operation",
              "name": "operation",
              "type": "uint8"
            },
            {
              "internalType": "address",
              "name": "where",
              "type": "address"
            },
            {
              "internalType": "address",
              "name": "who",
              "type": "address"
            },
            {
              "internalType": "address",
              "name": "condition",
              "type": "address"
            },
            {
              "internalType": "bytes32",
              "name": "permissionId",
              "type": "bytes32"
            }
          ],
          "internalType": "struct PermissionLib.MultiTargetPermission[]",
          "name": "permissions",
          "type": "tuple[]"
        }
      ],
      "stateMutability": "pure",
      "type": "function"
    },
    {
      "inputs": [
        {
          "internalType": "address",
          "name": "_dao",
          "type": "address"
        },
        {
          "internalType": "uint16",
          "name": "_fromBuild",
          "type": "uint16"
        },
        {
          "components": [
            {
              "internalType": "address",
              "name": "plugin",
              "type": "address"
            },
            {
              "internalType": "address[]",
              "name": "currentHelpers",
              "type": "address[]"
            },
            {
              "internalType": "bytes",
              "name": "data",
              "type": "bytes"
            }
          ],
          "internalType": "struct IPluginSetup.SetupPayload",
          "name": "_payload",
          "type": "tuple"
        }
      ],
      "name": "prepareUpdate",
      "outputs": [
        {
          "internalType": "bytes",
          "name": "initData",
          "type": "bytes"
        },
        {
          "components": [
            {
              "internalType": "address[]",
              "name": "helpers",
              "type": "address[]"
            },
            {
              "components": [
                {
                  "internalType": "enum PermissionLib.Operation",
                  "name": "operation",
                  "type": "uint8"
                },
                {
                  "internalType": "address",
                  "name": "where",
                  "type": "address"
                },
                {
                  "internalType": "address",
                  "name": "who",
                  "type": "address"
                },
                {
                  "internalType": "address",
                  "name": "condition",
                  "type": "address"
                },
                {
                  "internalType": "bytes32",
                  "name": "permissionId",
                  "type": "bytes32"
                }
              ],
              "internalType": "struct PermissionLib.MultiTargetPermission[]",
              "name": "permissions",
              "type": "tuple[]"
            }
          ],
          "internalType": "struct IPluginSetup.PreparedSetupData",
          "name": "preparedSetupData",
          "type": "tuple"
        }
      ],
      "stateMutability": "pure",
      "type": "function"
    },
    {
      "inputs": [],
      "name": "protocolVersion",
      "outputs": [
        {
          "internalType": "uint8[3]",
          "name": "",
          "type": "uint8[3]"
        }
      ],
      "stateMutability": "pure",
      "type": "function"
    },
    {
      "inputs": [
        {
          "internalType": "bytes4",
          "name": "_interfaceId",
          "type": "bytes4"
        }
      ],
      "name": "supportsInterface",
      "outputs": [
        {
          "internalType": "bool",
          "name": "",
          "type": "bool"
        }
      ],
      "stateMutability": "view",
      "type": "function"
    }
  ],
  "bytecode": "0x60a060405234801561001057600080fd5b5060405161001d9061004b565b604051809103906000f080158015610039573d6000803e3d6000fd5b506001600160a01b0316608052610058565b61142d8061130b83390190565b6080516112926100796000396000818160d2015261037e01526112926000f3fe60806040523480156200001157600080fd5b50600436106200007b5760003560e01c80639cb0a12411620000565780639cb0a12414620000fd578063a8a9c29e1462000123578063f10832f1146200014a57600080fd5b806301ffc9a714620000805780632ae9c60014620000ac5780635c60da1b14620000c5575b600080fd5b6200009762000091366004620006a3565b62000171565b60405190151581526020015b60405180910390f35b620000b6620001c4565b604051620000a39190620006cf565b6040516001600160a01b037f0000000000000000000000000000000000000000000000000000000000000000168152602001620000a3565b620001146200010e36600462000735565b620001f0565b604051620000a3919062000806565b6200013a6200013436600462000853565b62000209565b604051620000a3929190620009a2565b620001616200015b366004620009ea565b6200030f565b604051620000a392919062000ab8565b60006001600160e01b0319821663099718b560e41b1480620001a257506001600160e01b03198216621574e360e91b145b80620001be57506301ffc9a760e01b6001600160e01b03198316145b92915050565b620001ce62000677565b5060408051606081018252600181526004602082015260009181019190915290565b606062000202600060036001620003de565b9392505050565b606062000229604051806040016040528060608152602001606081525090565b8361ffff16600103620002985762000242600362000577565b815260405161ffff8516602482015260440160408051601f198184030181529190526020810180516001600160e01b03166239a8c560e41b17905291506200029261ffff851660036000620003de565b60208201525b8361ffff166002036200030757620002b1600362000577565b815260405161ffff8516602482015260440160408051601f198184030181529190526020810180516001600160e01b03166239a8c560e41b17905291506200030161ffff851660036000620003de565b60208201525b935093915050565b60006200032f604051806040016040528060608152602001606081525090565b6040516001600160a01b038516602482015260009060440160408051601f198184030181529190526020810180516001600160e01b031663189acdbd60e31b1790529050620003b081620003a07f000000000000000000000000000000000000000000000000000000000000000090565b6001600160a01b0316906200063b565b9250620003be600362000577565b8252620003cf6000600381620003de565b60208301525090939092509050565b6060826001600160a01b0316846001600160a01b031611156200041457604051633a4013cd60e21b815260040160405180910390fd5b62000420848462000afa565b6001600160a01b031667ffffffffffffffff811115620004445762000444620009d4565b6040519080825280602002602001820160405280156200049f57816020015b6040805160a081018252600080825260208083018290529282018190526060820181905260808201528252600019909201910181620004635790505b509050835b836001600160a01b0316816001600160a01b031610156200056f576040518060a00160405280846002811115620004df57620004df62000789565b81526001600160a01b038316602082018190526040820152600060608201527fa280eec51ab8e1bc4b6b0c1b7f1bde785761b787a49db404e3e9338ed9b016ef6080909101528262000532878462000afa565b6001600160a01b0316815181106200054e576200054e62000b24565b60200260200101819052508080620005669062000b3a565b915050620004a4565b509392505050565b6060816001600160a01b031667ffffffffffffffff8111156200059e576200059e620009d4565b604051908082528060200260200182016040528015620005c8578160200160208202803683370190505b50905060005b826001600160a01b0316816001600160a01b0316101562000635578082826001600160a01b03168151811062000608576200060862000b24565b6001600160a01b0390921660209283029190910190910152806200062c8162000b3a565b915050620005ce565b50919050565b600082826040516200064d9062000695565b6200065a92919062000b63565b604051809103906000f0801580156200056f573d6000803e3d6000fd5b60405180606001604052806003906020820280368337509192915050565b6106fe8062000b8883390190565b600060208284031215620006b657600080fd5b81356001600160e01b0319811681146200020257600080fd5b60608101818360005b6003811015620006fc57815160ff16835260209283019290910190600101620006d8565b50505092915050565b80356001600160a01b03811681146200071d57600080fd5b919050565b6000606082840312156200063557600080fd5b600080604083850312156200074957600080fd5b620007548362000705565b9150602083013567ffffffffffffffff8111156200077157600080fd5b6200077f8582860162000722565b9150509250929050565b634e487b7160e01b600052602160045260246000fd5b6000815160038110620007c257634e487b7160e01b600052602160045260246000fd5b8352506020818101516001600160a01b0390811691840191909152604080830151821690840152606080830151909116908301526080908101519082015260a00190565b6020808252825182820181905260009190848201906040850190845b818110156200084757620008388385516200079f565b93850193925060010162000822565b50909695505050505050565b6000806000606084860312156200086957600080fd5b620008748462000705565b9250602084013561ffff811681146200088c57600080fd5b9150604084013567ffffffffffffffff811115620008a957600080fd5b620008b78682870162000722565b9150509250925092565b6000815180845260005b81811015620008e957602081850181015186830182015201620008cb565b506000602082860101526020601f19601f83011685010191505092915050565b805160408084528151908401819052600091602091908201906060860190845b81811015620009505783516001600160a01b03168352928401929184019160010162000929565b50508483015186820387850152805180835290840192506000918401905b808310156200099757620009848285516200079f565b915084840193506001830192506200096e565b509695505050505050565b604081526000620009b76040830185620008c1565b8281036020840152620009cb818562000909565b95945050505050565b634e487b7160e01b600052604160045260246000fd5b60008060408385031215620009fe57600080fd5b62000a098362000705565b9150602083013567ffffffffffffffff8082111562000a2757600080fd5b818501915085601f83011262000a3c57600080fd5b81358181111562000a515762000a51620009d4565b604051601f8201601f19908116603f0116810190838211818310171562000a7c5762000a7c620009d4565b8160405282815288602084870101111562000a9657600080fd5b8260208601602083013760006020848301015280955050505050509250929050565b6001600160a01b038316815260406020820152600062000adc604083018462000909565b949350505050565b634e487b7160e01b600052601160045260246000fd5b6001600160a01b0382811682821603908082111562000b1d5762000b1d62000ae4565b5092915050565b634e487b7160e01b600052603260045260246000fd5b60006001600160a01b0380831681810362000b595762000b5962000ae4565b6001019392505050565b6001600160a01b038316815260406020820152600062000adc6040830184620008c156fe60806040526040516106fe3803806106fe83398101604081905261002291610319565b61002e82826000610035565b5050610436565b61003e8361006b565b60008251118061004b5750805b156100665761006483836100ab60201b6100291760201c565b505b505050565b610074816100d7565b6040516001600160a01b038216907fbc7cd75a20ee27fd9adebab32041f755214dbc6bffa90cc0225b39da2e5c2d3b90600090a250565b60606100d083836040518060600160405280602781526020016106d7602791396101a9565b9392505050565b6100ea8161022260201b6100551760201c565b6101515760405162461bcd60e51b815260206004820152602d60248201527f455243313936373a206e657720696d706c656d656e746174696f6e206973206e60448201526c1bdd08184818dbdb9d1c9858dd609a1b60648201526084015b60405180910390fd5b806101887f360894a13ba1a3210667c828492db98dca3e2076cc3735a920a3ca505d382bbc60001b61023160201b6100641760201c565b80546001600160a01b0319166001600160a01b039290921691909117905550565b6060600080856001600160a01b0316856040516101c691906103e7565b600060405180830381855af49150503d8060008114610201576040519150601f19603f3d011682016040523d82523d6000602084013e610206565b606091505b50909250905061021886838387610234565b9695505050505050565b6001600160a01b03163b151590565b90565b606083156102a357825160000361029c576001600160a01b0385163b61029c5760405162461bcd60e51b815260206004820152601d60248201527f416464726573733a2063616c6c20746f206e6f6e2d636f6e74726163740000006044820152606401610148565b50816102ad565b6102ad83836102b5565b949350505050565b8151156102c55781518083602001fd5b8060405162461bcd60e51b81526004016101489190610403565b634e487b7160e01b600052604160045260246000fd5b60005b838110156103105781810151838201526020016102f8565b50506000910152565b6000806040838503121561032c57600080fd5b82516001600160a01b038116811461034357600080fd5b60208401519092506001600160401b038082111561036057600080fd5b818501915085601f83011261037457600080fd5b815181811115610386576103866102df565b604051601f8201601f19908116603f011681019083821181831017156103ae576103ae6102df565b816040528281528860208487010111156103c757600080fd5b6103d88360208301602088016102f5565b80955050505050509250929050565b600082516103f98184602087016102f5565b9190910192915050565b60208152600082518060208401526104228160408501602087016102f5565b601f01601f19169190910160400192915050565b610292806104456000396000f3fe60806040523661001357610011610017565b005b6100115b610027610022610067565b61009f565b565b606061004e838360405180606001604052806027815260200161025f602791396100c3565b9392505050565b6001600160a01b03163b151590565b90565b600061009a7f360894a13ba1a3210667c828492db98dca3e2076cc3735a920a3ca505d382bbc546001600160a01b031690565b905090565b3660008037600080366000845af43d6000803e8080156100be573d6000f35b3d6000fd5b6060600080856001600160a01b0316856040516100e0919061020f565b600060405180830381855af49150503d806000811461011b576040519150601f19603f3d011682016040523d82523d6000602084013e610120565b606091505b50915091506101318683838761013b565b9695505050505050565b606083156101af5782516000036101a8576001600160a01b0385163b6101a85760405162461bcd60e51b815260206004820152601d60248201527f416464726573733a2063616c6c20746f206e6f6e2d636f6e747261637400000060448201526064015b60405180910390fd5b50816101b9565b6101b983836101c1565b949350505050565b8151156101d15781518083602001fd5b8060405162461bcd60e51b815260040161019f919061022b565b60005b838110156102065781810151838201526020016101ee565b50506000910152565b600082516102218184602087016101eb565b9190910192915050565b602081526000825180602084015261024a8160408501602087016101eb565b601f01601f1916919091016040019291505056fe416464726573733a206c6f772d6c6576656c2064656c65676174652063616c6c206661696c6564a164736f6c6343000811000a416464726573733a206c6f772d6c6576656c2064656c65676174652063616c6c206661696c6564a164736f6c6343000811000a60a06040523060805234801561001457600080fd5b5061001d610022565b6100e1565b600054610100900460ff161561008e5760405162461bcd60e51b815260206004820152602760248201527f496e697469616c697a61626c653a20636f6e747261637420697320696e697469604482015266616c697a696e6760c81b606482015260840160405180910390fd5b60005460ff908116146100df576000805460ff191660ff9081179091556040519081527f7f26b83ff96e1f2b6a682f133852f6798a09c465da95921460cefb38474024989060200160405180910390a15b565b608051611315610118600039600081816104af015281816105340152818161062a015281816106af015261079901526113156000f3fe6080604052600436106100f35760003560e01c806352d1902d1161008a578063c4d66de811610059578063c4d66de814610278578063c9c4bfca14610298578063d4b83992146102cc578063efe51cca146102ec57600080fd5b806352d1902d146102175780635c60da1b1461022c5780636accab8c14610241578063776d1a011461025857600080fd5b80633659cfe6116100c65780633659cfe6146101965780634162169f146101b657806341de6830146101e85780634f1ef2861461020457600080fd5b806301ffc9a7146100f8578063039a8c501461012d5780632491118d1461014f5780632ae9c60014610174575b600080fd5b34801561010457600080fd5b50610118610113366004611029565b610303565b60405190151581526020015b60405180910390f35b34801561013957600080fd5b5061014d610148366004611053565b61036f565b005b34801561015b57600080fd5b5061016661012f5481565b604051908152602001610124565b34801561018057600080fd5b5061018961047b565b6040516101249190611077565b3480156101a257600080fd5b5061014d6101b13660046110c0565b6104a5565b3480156101c257600080fd5b5060c9546001600160a01b03165b6040516001600160a01b039091168152602001610124565b3480156101f457600080fd5b50600060405161012491906110dd565b61014d61021236600461111b565b610620565b34801561022357600080fd5b5061016661078c565b34801561023857600080fd5b506101d0610851565b34801561024d57600080fd5b5061016661012d5481565b34801561026457600080fd5b5061014d6102733660046110c0565b610889565b34801561028457600080fd5b5061014d6102933660046110c0565b6108e8565b3480156102a457600080fd5b506101667f821b6e3a557148015a918c89e5d092e878a69854a2d1a410635f771bd5a8a3f581565b3480156102d857600080fd5b5060fb546101d0906001600160a01b031681565b3480156102f857600080fd5b5061016661012e5481565b60006001600160e01b0319821663041de68360e41b148061033357506001600160e01b03198216621574e360e91b145b8061034e57506001600160e01b031982166352d1902d60e01b145b8061036957506301ffc9a760e01b6001600160e01b03198316145b92915050565b600054600390610100900460ff16158015610391575060005460ff8083169116105b6103f95760405162461bcd60e51b815260206004820152602e60248201527f496e697469616c697a61626c653a20636f6e747261637420697320616c72656160448201526d191e481a5b9a5d1a585b1a5e995960921b60648201526084015b60405180910390fd5b6000805461ffff191660ff831617610100179055600261ffff8316101561042157600261012e555b60038261ffff16101561043557600361012f555b6000805461ff001916905560405160ff821681527f7f26b83ff96e1f2b6a682f133852f6798a09c465da95921460cefb3847402498906020015b60405180910390a15050565b61048361100b565b5060408051606081018252600181526004602082015260009181019190915290565b6001600160a01b037f00000000000000000000000000000000000000000000000000000000000000001630036105325760405162461bcd60e51b815260206004820152602c60248201527f46756e6374696f6e206d7573742062652063616c6c6564207468726f7567682060448201526b19195b1959d85d1958d85b1b60a21b60648201526084016103f0565b7f00000000000000000000000000000000000000000000000000000000000000006001600160a01b031661058d7f360894a13ba1a3210667c828492db98dca3e2076cc3735a920a3ca505d382bbc546001600160a01b031690565b6001600160a01b0316146105f85760405162461bcd60e51b815260206004820152602c60248201527f46756e6374696f6e206d7573742062652063616c6c6564207468726f7567682060448201526b6163746976652070726f787960a01b60648201526084016103f0565b610601816109da565b6040805160008082526020820190925261061d91839190610a17565b50565b6001600160a01b037f00000000000000000000000000000000000000000000000000000000000000001630036106ad5760405162461bcd60e51b815260206004820152602c60248201527f46756e6374696f6e206d7573742062652063616c6c6564207468726f7567682060448201526b19195b1959d85d1958d85b1b60a21b60648201526084016103f0565b7f00000000000000000000000000000000000000000000000000000000000000006001600160a01b03166107087f360894a13ba1a3210667c828492db98dca3e2076cc3735a920a3ca505d382bbc546001600160a01b031690565b6001600160a01b0316146107735760405162461bcd60e51b815260206004820152602c60248201527f46756e6374696f6e206d7573742062652063616c6c6564207468726f7567682060448201526b6163746976652070726f787960a01b60648201526084016103f0565b61077c826109da565b61078882826001610a17565b5050565b6000306001600160a01b037f0000000000000000000000000000000000000000000000000000000000000000161461082c5760405162461bcd60e51b815260206004820152603860248201527f555550535570677261646561626c653a206d757374206e6f742062652063616c60448201527f6c6564207468726f7567682064656c656761746563616c6c000000000000000060648201526084016103f0565b507f360894a13ba1a3210667c828492db98dca3e2076cc3735a920a3ca505d382bbc90565b60006108847f360894a13ba1a3210667c828492db98dca3e2076cc3735a920a3ca505d382bbc546001600160a01b031690565b905090565b60fb80546001600160a01b0383811673ffffffffffffffffffffffffffffffffffffffff19831681179093556040519116919082907f90cc2f570a6eb594b1580ea3e41247d2d73a55281889e86bd4ec2fc29c7e62d690600090a35050565b600054600390610100900460ff1615801561090a575060005460ff8083169116105b61096d5760405162461bcd60e51b815260206004820152602e60248201527f496e697469616c697a61626c653a20636f6e747261637420697320616c72656160448201526d191e481a5b9a5d1a585b1a5e995960921b60648201526084016103f0565b6000805461ffff191660ff83161761010017905561098a82610bbc565b600161012d55600261012e55600361012f556000805461ff001916905560405160ff821681527f7f26b83ff96e1f2b6a682f133852f6798a09c465da95921460cefb38474024989060200161046f565b60c9547f821b6e3a557148015a918c89e5d092e878a69854a2d1a410635f771bd5a8a3f590610788906001600160a01b0316303384600036610c30565b7f4910fdfa16fed3260ed0e7147f7cc6da11a60208b5b9406d12a635614ffd91435460ff1615610a4f57610a4a83610cec565b505050565b826001600160a01b03166352d1902d6040518163ffffffff1660e01b8152600401602060405180830381865afa925050508015610aa9575060408051601f3d908101601f19168201909252610aa6918101906111df565b60015b610b1b5760405162461bcd60e51b815260206004820152602e60248201527f45524331393637557067726164653a206e657720696d706c656d656e7461746960448201527f6f6e206973206e6f74205555505300000000000000000000000000000000000060648201526084016103f0565b7f360894a13ba1a3210667c828492db98dca3e2076cc3735a920a3ca505d382bbc8114610bb05760405162461bcd60e51b815260206004820152602960248201527f45524331393637557067726164653a20756e737570706f727465642070726f7860448201527f6961626c6555554944000000000000000000000000000000000000000000000060648201526084016103f0565b50610a4a838383610db7565b600054610100900460ff16610c275760405162461bcd60e51b815260206004820152602b60248201527f496e697469616c697a61626c653a20636f6e7472616374206973206e6f74206960448201526a6e697469616c697a696e6760a81b60648201526084016103f0565b61061d81610de2565b604051637ef7c88360e11b81526001600160a01b0387169063fdef910690610c6490889088908890889088906004016111f8565b602060405180830381865afa158015610c81573d6000803e3d6000fd5b505050506040513d601f19601f82011682018060405250810190610ca5919061124c565b610ce457604051630cb6f8ed60e21b81526001600160a01b038088166004830152808716602483015285166044820152606481018490526084016103f0565b505050505050565b6001600160a01b0381163b610d695760405162461bcd60e51b815260206004820152602d60248201527f455243313936373a206e657720696d706c656d656e746174696f6e206973206e60448201527f6f74206120636f6e74726163740000000000000000000000000000000000000060648201526084016103f0565b7f360894a13ba1a3210667c828492db98dca3e2076cc3735a920a3ca505d382bbc805473ffffffffffffffffffffffffffffffffffffffff19166001600160a01b0392909216919091179055565b610dc083610e7c565b600082511180610dcd5750805b15610a4a57610ddc8383610ebc565b50505050565b600054610100900460ff16610e4d5760405162461bcd60e51b815260206004820152602b60248201527f496e697469616c697a61626c653a20636f6e7472616374206973206e6f74206960448201526a6e697469616c697a696e6760a81b60648201526084016103f0565b60c9805473ffffffffffffffffffffffffffffffffffffffff19166001600160a01b0392909216919091179055565b610e8581610cec565b6040516001600160a01b038216907fbc7cd75a20ee27fd9adebab32041f755214dbc6bffa90cc0225b39da2e5c2d3b90600090a250565b6060610ee183836040518060600160405280602781526020016112e260279139610ee8565b9392505050565b6060600080856001600160a01b031685604051610f059190611292565b600060405180830381855af49150503d8060008114610f40576040519150601f19603f3d011682016040523d82523d6000602084013e610f45565b606091505b5091509150610f5686838387610f60565b9695505050505050565b60608315610fcf578251600003610fc8576001600160a01b0385163b610fc85760405162461bcd60e51b815260206004820152601d60248201527f416464726573733a2063616c6c20746f206e6f6e2d636f6e747261637400000060448201526064016103f0565b5081610fd9565b610fd98383610fe1565b949350505050565b815115610ff15781518083602001fd5b8060405162461bcd60e51b81526004016103f091906112ae565b60405180606001604052806003906020820280368337509192915050565b60006020828403121561103b57600080fd5b81356001600160e01b031981168114610ee157600080fd5b60006020828403121561106557600080fd5b813561ffff81168114610ee157600080fd5b60608101818360005b60038110156110a257815160ff16835260209283019290910190600101611080565b50505092915050565b6001600160a01b038116811461061d57600080fd5b6000602082840312156110d257600080fd5b8135610ee1816110ab565b60208101600383106110ff57634e487b7160e01b600052602160045260246000fd5b91905290565b634e487b7160e01b600052604160045260246000fd5b6000806040838503121561112e57600080fd5b8235611139816110ab565b9150602083013567ffffffffffffffff8082111561115657600080fd5b818501915085601f83011261116a57600080fd5b81358181111561117c5761117c611105565b604051601f8201601f19908116603f011681019083821181831017156111a4576111a4611105565b816040528281528860208487010111156111bd57600080fd5b8260208601602083013760006020848301015280955050505050509250929050565b6000602082840312156111f157600080fd5b5051919050565b60006001600160a01b03808816835280871660208401525084604083015260806060830152826080830152828460a0840137600060a0848401015260a0601f19601f85011683010190509695505050505050565b60006020828403121561125e57600080fd5b81518015158114610ee157600080fd5b60005b83811015611289578181015183820152602001611271565b50506000910152565b600082516112a481846020870161126e565b9190910192915050565b60208152600082518060208401526112cd81604085016020870161126e565b601f01601f1916919091016040019291505056fe416464726573733a206c6f772d6c6576656c2064656c65676174652063616c6c206661696c6564a164736f6c6343000811000a",
  "linkReferences": {},
  "deployedLinkReferences": {}
}