{
  "_format": "hh-sol-artifact-1",
  "contractName": "PluginUUPSUpgradeableMockBuild3",
  "sourceName": "src/mocks/plugin/PluginUUPSUpgradeableMock.sol",
  "abi": [
    {
      "inputs": [
        {
          "internalType": "address",
          "name": "dao",
          "type": "address"
        },
        {
          "internalType": "address",
          "name": "where",
          "type": "address"
        },
        {
          "internalType": "address",
          "name": "who",
          "type": "address"
        },
        {
          "internalType": "bytes32",
          "name": "permissionId",
          "type": "bytes32"
        }
      ],
      "name": "DaoUnauthorized",
      "type": "error"
    },
    {
      "anonymous": false,
      "inputs": [
        {
          "indexed": false,
          "internalType": "address",
          "name": "previousAdmin",
          "type": "address"
        },
        {
          "indexed": false,
          "internalType": "address",
          "name": "newAdmin",
          "type": "address"
        }
      ],
      "name": "AdminChanged",
      "type": "event"
    },
    {
      "anonymous": false,
      "inputs": [
        {
          "indexed": true,
          "internalType": "address",
          "name": "beacon",
          "type": "address"
        }
      ],
      "name": "BeaconUpgraded",
      "type": "event"
    },
    {
      "anonymous": false,
      "inputs": [
        {
          "indexed": false,
          "internalType": "uint8",
          "name": "version",
          "type": "uint8"
        }
      ],
      "name": "Initialized",
      "type": "event"
    },
    {
      "anonymous": false,
      "inputs": [
        {
          "indexed": true,
          "internalType": "address",
          "name": "previousTarget",
          "type": "address"
        },
        {
          "indexed": true,
          "internalType": "address",
          "name": "newTarget",
          "type": "address"
        }
      ],
      "name": "TargetSet",
      "type": "event"
    },
    {
      "anonymous": false,
      "inputs": [
        {
          "indexed": true,
          "internalType": "address",
          "name": "implementation",
          "type": "address"
        }
      ],
      "name": "Upgraded",
      "type": "event"
    },
    {
      "inputs": [],
      "name": "UPGRADE_PLUGIN_PERMISSION_ID",
      "outputs": [
        {
          "internalType": "bytes32",
          "name": "",
          "type": "bytes32"
        }
      ],
      "stateMutability": "view",
      "type": "function"
    },
    {
      "inputs": [],
      "name": "dao",
      "outputs": [
        {
          "internalType": "contract IDAO",
          "name": "",
          "type": "address"
        }
      ],
      "stateMutability": "view",
      "type": "function"
    },
    {
      "inputs": [],
      "name": "implementation",
      "outputs": [
        {
          "internalType": "address",
          "name": "",
          "type": "address"
        }
      ],
      "stateMutability": "view",
      "type": "function"
    },
    {
      "inputs": [
        {
          "internalType": "contract IDAO",
          "name": "_dao",
          "type": "address"
        }
      ],
      "name": "initialize",
      "outputs": [],
      "stateMutability": "nonpayable",
      "type": "function"
    },
    {
      "inputs": [
        {
          "internalType": "uint16",
          "name": "_previousBuild",
          "type": "uint16"
        }
      ],
      "name": "initializeFrom",
      "outputs": [],
      "stateMutability": "nonpayable",
      "type": "function"
    },
    {
      "inputs": [],
      "name": "pluginType",
      "outputs": [
        {
          "internalType": "enum IPlugin.PluginType",
          "name": "",
          "type": "uint8"
        }
      ],
      "stateMutability": "pure",
      "type": "function"
    },
    {
      "inputs": [],
      "name": "protocolVersion",
      "outputs": [
        {
          "internalType": "uint8[3]",
          "name": "",
          "type": "uint8[3]"
        }
      ],
      "stateMutability": "pure",
      "type": "function"
    },
    {
      "inputs": [],
      "name": "proxiableUUID",
      "outputs": [
        {
          "internalType": "bytes32",
          "name": "",
          "type": "bytes32"
        }
      ],
      "stateMutability": "view",
      "type": "function"
    },
    {
      "inputs": [
        {
          "internalType": "address",
          "name": "_target",
          "type": "address"
        }
      ],
      "name": "setTarget",
      "outputs": [],
      "stateMutability": "nonpayable",
      "type": "function"
    },
    {
      "inputs": [],
      "name": "state1",
      "outputs": [
        {
          "internalType": "uint256",
          "name": "",
          "type": "uint256"
        }
      ],
      "stateMutability": "view",
      "type": "function"
    },
    {
      "inputs": [],
      "name": "state2",
      "outputs": [
        {
          "internalType": "uint256",
          "name": "",
          "type": "uint256"
        }
      ],
      "stateMutability": "view",
      "type": "function"
    },
    {
      "inputs": [],
      "name": "state3",
      "outputs": [
        {
          "internalType": "uint256",
          "name": "",
          "type": "uint256"
        }
      ],
      "stateMutability": "view",
      "type": "function"
    },
    {
      "inputs": [
        {
          "internalType": "bytes4",
          "name": "_interfaceId",
          "type": "bytes4"
        }
      ],
      "name": "supportsInterface",
      "outputs": [
        {
          "internalType": "bool",
          "name": "",
          "type": "bool"
        }
      ],
      "stateMutability": "view",
      "type": "function"
    },
    {
      "inputs": [],
      "name": "target",
      "outputs": [
        {
          "internalType": "address",
          "name": "",
          "type": "address"
        }
      ],
      "stateMutability": "view",
      "type": "function"
    },
    {
      "inputs": [
        {
          "internalType": "address",
          "name": "newImplementation",
          "type": "address"
        }
      ],
      "name": "upgradeTo",
      "outputs": [],
      "stateMutability": "nonpayable",
      "type": "function"
    },
    {
      "inputs": [
        {
          "internalType": "address",
          "name": "newImplementation",
          "type": "address"
        },
        {
          "internalType": "bytes",
          "name": "data",
          "type": "bytes"
        }
      ],
      "name": "upgradeToAndCall",
      "outputs": [],
      "stateMutability": "payable",
      "type": "function"
    }
  ],
  "bytecode": "0x60a06040523060805234801561001457600080fd5b5061001d610022565b6100e1565b600054610100900460ff161561008e5760405162461bcd60e51b815260206004820152602760248201527f496e697469616c697a61626c653a20636f6e747261637420697320696e697469604482015266616c697a696e6760c81b606482015260840160405180910390fd5b60005460ff908116146100df576000805460ff191660ff9081179091556040519081527f7f26b83ff96e1f2b6a682f133852f6798a09c465da95921460cefb38474024989060200160405180910390a15b565b608051611315610118600039600081816104af015281816105340152818161062a015281816106af015261079901526113156000f3fe6080604052600436106100f35760003560e01c806352d1902d1161008a578063c4d66de811610059578063c4d66de814610278578063c9c4bfca14610298578063d4b83992146102cc578063efe51cca146102ec57600080fd5b806352d1902d146102175780635c60da1b1461022c5780636accab8c14610241578063776d1a011461025857600080fd5b80633659cfe6116100c65780633659cfe6146101965780634162169f146101b657806341de6830146101e85780634f1ef2861461020457600080fd5b806301ffc9a7146100f8578063039a8c501461012d5780632491118d1461014f5780632ae9c60014610174575b600080fd5b34801561010457600080fd5b50610118610113366004611029565b610303565b60405190151581526020015b60405180910390f35b34801561013957600080fd5b5061014d610148366004611053565b61036f565b005b34801561015b57600080fd5b5061016661012f5481565b604051908152602001610124565b34801561018057600080fd5b5061018961047b565b6040516101249190611077565b3480156101a257600080fd5b5061014d6101b13660046110c0565b6104a5565b3480156101c257600080fd5b5060c9546001600160a01b03165b6040516001600160a01b039091168152602001610124565b3480156101f457600080fd5b50600060405161012491906110dd565b61014d61021236600461111b565b610620565b34801561022357600080fd5b5061016661078c565b34801561023857600080fd5b506101d0610851565b34801561024d57600080fd5b5061016661012d5481565b34801561026457600080fd5b5061014d6102733660046110c0565b610889565b34801561028457600080fd5b5061014d6102933660046110c0565b6108e8565b3480156102a457600080fd5b506101667f821b6e3a557148015a918c89e5d092e878a69854a2d1a410635f771bd5a8a3f581565b3480156102d857600080fd5b5060fb546101d0906001600160a01b031681565b3480156102f857600080fd5b5061016661012e5481565b60006001600160e01b0319821663041de68360e41b148061033357506001600160e01b03198216621574e360e91b145b8061034e57506001600160e01b031982166352d1902d60e01b145b8061036957506301ffc9a760e01b6001600160e01b03198316145b92915050565b600054600390610100900460ff16158015610391575060005460ff8083169116105b6103f95760405162461bcd60e51b815260206004820152602e60248201527f496e697469616c697a61626c653a20636f6e747261637420697320616c72656160448201526d191e481a5b9a5d1a585b1a5e995960921b60648201526084015b60405180910390fd5b6000805461ffff191660ff831617610100179055600261ffff8316101561042157600261012e555b60038261ffff16101561043557600361012f555b6000805461ff001916905560405160ff821681527f7f26b83ff96e1f2b6a682f133852f6798a09c465da95921460cefb3847402498906020015b60405180910390a15050565b61048361100b565b5060408051606081018252600181526004602082015260009181019190915290565b6001600160a01b037f00000000000000000000000000000000000000000000000000000000000000001630036105325760405162461bcd60e51b815260206004820152602c60248201527f46756e6374696f6e206d7573742062652063616c6c6564207468726f7567682060448201526b19195b1959d85d1958d85b1b60a21b60648201526084016103f0565b7f00000000000000000000000000000000000000000000000000000000000000006001600160a01b031661058d7f360894a13ba1a3210667c828492db98dca3e2076cc3735a920a3ca505d382bbc546001600160a01b031690565b6001600160a01b0316146105f85760405162461bcd60e51b815260206004820152602c60248201527f46756e6374696f6e206d7573742062652063616c6c6564207468726f7567682060448201526b6163746976652070726f787960a01b60648201526084016103f0565b610601816109da565b6040805160008082526020820190925261061d91839190610a17565b50565b6001600160a01b037f00000000000000000000000000000000000000000000000000000000000000001630036106ad5760405162461bcd60e51b815260206004820152602c60248201527f46756e6374696f6e206d7573742062652063616c6c6564207468726f7567682060448201526b19195b1959d85d1958d85b1b60a21b60648201526084016103f0565b7f00000000000000000000000000000000000000000000000000000000000000006001600160a01b03166107087f360894a13ba1a3210667c828492db98dca3e2076cc3735a920a3ca505d382bbc546001600160a01b031690565b6001600160a01b0316146107735760405162461bcd60e51b815260206004820152602c60248201527f46756e6374696f6e206d7573742062652063616c6c6564207468726f7567682060448201526b6163746976652070726f787960a01b60648201526084016103f0565b61077c826109da565b61078882826001610a17565b5050565b6000306001600160a01b037f0000000000000000000000000000000000000000000000000000000000000000161461082c5760405162461bcd60e51b815260206004820152603860248201527f555550535570677261646561626c653a206d757374206e6f742062652063616c60448201527f6c6564207468726f7567682064656c656761746563616c6c000000000000000060648201526084016103f0565b507f360894a13ba1a3210667c828492db98dca3e2076cc3735a920a3ca505d382bbc90565b60006108847f360894a13ba1a3210667c828492db98dca3e2076cc3735a920a3ca505d382bbc546001600160a01b031690565b905090565b60fb80546001600160a01b0383811673ffffffffffffffffffffffffffffffffffffffff19831681179093556040519116919082907f90cc2f570a6eb594b1580ea3e41247d2d73a55281889e86bd4ec2fc29c7e62d690600090a35050565b600054600390610100900460ff1615801561090a575060005460ff8083169116105b61096d5760405162461bcd60e51b815260206004820152602e60248201527f496e697469616c697a61626c653a20636f6e747261637420697320616c72656160448201526d191e481a5b9a5d1a585b1a5e995960921b60648201526084016103f0565b6000805461ffff191660ff83161761010017905561098a82610bbc565b600161012d55600261012e55600361012f556000805461ff001916905560405160ff821681527f7f26b83ff96e1f2b6a682f133852f6798a09c465da95921460cefb38474024989060200161046f565b60c9547f821b6e3a557148015a918c89e5d092e878a69854a2d1a410635f771bd5a8a3f590610788906001600160a01b0316303384600036610c30565b7f4910fdfa16fed3260ed0e7147f7cc6da11a60208b5b9406d12a635614ffd91435460ff1615610a4f57610a4a83610cec565b505050565b826001600160a01b03166352d1902d6040518163ffffffff1660e01b8152600401602060405180830381865afa925050508015610aa9575060408051601f3d908101601f19168201909252610aa6918101906111df565b60015b610b1b5760405162461bcd60e51b815260206004820152602e60248201527f45524331393637557067726164653a206e657720696d706c656d656e7461746960448201527f6f6e206973206e6f74205555505300000000000000000000000000000000000060648201526084016103f0565b7f360894a13ba1a3210667c828492db98dca3e2076cc3735a920a3ca505d382bbc8114610bb05760405162461bcd60e51b815260206004820152602960248201527f45524331393637557067726164653a20756e737570706f727465642070726f7860448201527f6961626c6555554944000000000000000000000000000000000000000000000060648201526084016103f0565b50610a4a838383610db7565b600054610100900460ff16610c275760405162461bcd60e51b815260206004820152602b60248201527f496e697469616c697a61626c653a20636f6e7472616374206973206e6f74206960448201526a6e697469616c697a696e6760a81b60648201526084016103f0565b61061d81610de2565b604051637ef7c88360e11b81526001600160a01b0387169063fdef910690610c6490889088908890889088906004016111f8565b602060405180830381865afa158015610c81573d6000803e3d6000fd5b505050506040513d601f19601f82011682018060405250810190610ca5919061124c565b610ce457604051630cb6f8ed60e21b81526001600160a01b038088166004830152808716602483015285166044820152606481018490526084016103f0565b505050505050565b6001600160a01b0381163b610d695760405162461bcd60e51b815260206004820152602d60248201527f455243313936373a206e657720696d706c656d656e746174696f6e206973206e60448201527f6f74206120636f6e74726163740000000000000000000000000000000000000060648201526084016103f0565b7f360894a13ba1a3210667c828492db98dca3e2076cc3735a920a3ca505d382bbc805473ffffffffffffffffffffffffffffffffffffffff19166001600160a01b0392909216919091179055565b610dc083610e7c565b600082511180610dcd5750805b15610a4a57610ddc8383610ebc565b50505050565b600054610100900460ff16610e4d5760405162461bcd60e51b815260206004820152602b60248201527f496e697469616c697a61626c653a20636f6e7472616374206973206e6f74206960448201526a6e697469616c697a696e6760a81b60648201526084016103f0565b60c9805473ffffffffffffffffffffffffffffffffffffffff19166001600160a01b0392909216919091179055565b610e8581610cec565b6040516001600160a01b038216907fbc7cd75a20ee27fd9adebab32041f755214dbc6bffa90cc0225b39da2e5c2d3b90600090a250565b6060610ee183836040518060600160405280602781526020016112e260279139610ee8565b9392505050565b6060600080856001600160a01b031685604051610f059190611292565b600060405180830381855af49150503d8060008114610f40576040519150601f19603f3d011682016040523d82523d6000602084013e610f45565b606091505b5091509150610f5686838387610f60565b9695505050505050565b60608315610fcf578251600003610fc8576001600160a01b0385163b610fc85760405162461bcd60e51b815260206004820152601d60248201527f416464726573733a2063616c6c20746f206e6f6e2d636f6e747261637400000060448201526064016103f0565b5081610fd9565b610fd98383610fe1565b949350505050565b815115610ff15781518083602001fd5b8060405162461bcd60e51b81526004016103f091906112ae565b60405180606001604052806003906020820280368337509192915050565b60006020828403121561103b57600080fd5b81356001600160e01b031981168114610ee157600080fd5b60006020828403121561106557600080fd5b813561ffff81168114610ee157600080fd5b60608101818360005b60038110156110a257815160ff16835260209283019290910190600101611080565b50505092915050565b6001600160a01b038116811461061d57600080fd5b6000602082840312156110d257600080fd5b8135610ee1816110ab565b60208101600383106110ff57634e487b7160e01b600052602160045260246000fd5b91905290565b634e487b7160e01b600052604160045260246000fd5b6000806040838503121561112e57600080fd5b8235611139816110ab565b9150602083013567ffffffffffffffff8082111561115657600080fd5b818501915085601f83011261116a57600080fd5b81358181111561117c5761117c611105565b604051601f8201601f19908116603f011681019083821181831017156111a4576111a4611105565b816040528281528860208487010111156111bd57600080fd5b8260208601602083013760006020848301015280955050505050509250929050565b6000602082840312156111f157600080fd5b5051919050565b60006001600160a01b03808816835280871660208401525084604083015260806060830152826080830152828460a0840137600060a0848401015260a0601f19601f85011683010190509695505050505050565b60006020828403121561125e57600080fd5b81518015158114610ee157600080fd5b60005b83811015611289578181015183820152602001611271565b50506000910152565b600082516112a481846020870161126e565b9190910192915050565b60208152600082518060208401526112cd81604085016020870161126e565b601f01601f1916919091016040019291505056fe416464726573733a206c6f772d6c6576656c2064656c65676174652063616c6c206661696c6564a164736f6c6343000811000a",
  "linkReferences": {},
  "deployedLinkReferences": {}
}