{
  "_format": "hh-sol-artifact-1",
  "contractName": "BitmapMock",
  "sourceName": "src/mocks/utils/math/BitmapMock.sol",
  "abi": [
    {
      "inputs": [
        {
          "internalType": "uint256",
          "name": "_bitmap",
          "type": "uint256"
        },
        {
          "internalType": "uint8",
          "name": "_index",
          "type": "uint8"
        }
      ],
      "name": "flipBit",
      "outputs": [
        {
          "internalType": "uint256",
          "name": "",
          "type": "uint256"
        }
      ],
      "stateMutability": "pure",
      "type": "function"
    },
    {
      "inputs": [
        {
          "internalType": "uint256",
          "name": "_bitmap",
          "type": "uint256"
        },
        {
          "internalType": "uint8",
          "name": "_index",
          "type": "uint8"
        }
      ],
      "name": "hasBit",
      "outputs": [
        {
          "internalType": "bool",
          "name": "",
          "type": "bool"
        }
      ],
      "stateMutability": "pure",
      "type": "function"
    }
  ],
  "bytecode": "0x608060405234801561001057600080fd5b5060dc8061001f6000396000f3fe6080604052348015600f57600080fd5b506004361060325760003560e01c806330c869ef1460375780637a3a148514605b575b600080fd5b60466042366004609b565b6077565b60405190151581526020015b60405180910390f35b606a6066366004609b565b608c565b6040519081526020016052565b6000600160ff83161b831615155b9392505050565b6000600160ff83161b83186085565b6000806040838503121560ad57600080fd5b82359150602083013560ff8116811460c457600080fd5b80915050925092905056fea164736f6c6343000811000a",
  "linkReferences": {},
  "deployedLinkReferences": {}
}