{
  "_format": "hh-sol-artifact-1",
  "contractName": "RatioMock",
  "sourceName": "src/mocks/utils/math/RatioMock.sol",
  "abi": [
    {
      "inputs": [
        {
          "internalType": "uint256",
          "name": "limit",
          "type": "uint256"
        },
        {
          "internalType": "uint256",
          "name": "actual",
          "type": "uint256"
        }
      ],
      "name": "RatioOutOfBounds",
      "type": "error"
    },
    {
      "inputs": [
        {
          "internalType": "uint256",
          "name": "_value",
          "type": "uint256"
        },
        {
          "internalType": "uint256",
          "name": "_ratio",
          "type": "uint256"
        }
      ],
      "name": "applyRatioCeiled",
      "outputs": [
        {
          "internalType": "uint256",
          "name": "",
          "type": "uint256"
        }
      ],
      "stateMutability": "pure",
      "type": "function"
    },
    {
      "inputs": [],
      "name": "getRatioBase",
      "outputs": [
        {
          "internalType": "uint256",
          "name": "",
          "type": "uint256"
        }
      ],
      "stateMutability": "pure",
      "type": "function"
    }
  ],
  "bytecode": "0x608060405234801561001057600080fd5b506101a3806100206000396000f3fe608060405234801561001057600080fd5b50600436106100365760003560e01c80633d9de6701461003b578063a027562014610052575b600080fd5b620f42405b60405190815260200160405180910390f35b6100406100603660046100f0565b600061006c8383610075565b90505b92915050565b6000620f42408211156100ab5760405163cc80c19560e01b8152620f424060048201526024810183905260440160405180910390fd5b6100b58284610128565b925060006100c6620f424085610155565b90506100d5620f424085610169565b915080156100e9576100e68261017d565b91505b5092915050565b6000806040838503121561010357600080fd5b50508035926020909101359150565b634e487b7160e01b600052601160045260246000fd5b808202811582820484141761006f5761006f610112565b634e487b7160e01b600052601260045260246000fd5b6000826101645761016461013f565b500690565b6000826101785761017861013f565b500490565b60006001820161018f5761018f610112565b506001019056fea164736f6c6343000811000a",
  "linkReferences": {},
  "deployedLinkReferences": {}
}