{
  "_format": "hh-sol-artifact-1",
  "contractName": "AddresslistMock",
  "sourceName": "src/mocks/plugin/extensions/governance/AddresslistMock.sol",
  "abi": [
    {
      "inputs": [
        {
          "internalType": "address",
          "name": "member",
          "type": "address"
        }
      ],
      "name": "InvalidAddresslistUpdate",
      "type": "error"
    },
    {
      "inputs": [
        {
          "internalType": "address[]",
          "name": "_newAddresses",
          "type": "address[]"
        }
      ],
      "name": "addAddresses",
      "outputs": [],
      "stateMutability": "nonpayable",
      "type": "function"
    },
    {
      "inputs": [],
      "name": "addresslistLength",
      "outputs": [
        {
          "internalType": "uint256",
          "name": "",
          "type": "uint256"
        }
      ],
      "stateMutability": "view",
      "type": "function"
    },
    {
      "inputs": [
        {
          "internalType": "uint256",
          "name": "_blockNumber",
          "type": "uint256"
        }
      ],
      "name": "addresslistLengthAtBlock",
      "outputs": [
        {
          "internalType": "uint256",
          "name": "",
          "type": "uint256"
        }
      ],
      "stateMutability": "view",
      "type": "function"
    },
    {
      "inputs": [
        {
          "internalType": "address",
          "name": "_account",
          "type": "address"
        }
      ],
      "name": "isListed",
      "outputs": [
        {
          "internalType": "bool",
          "name": "",
          "type": "bool"
        }
      ],
      "stateMutability": "view",
      "type": "function"
    },
    {
      "inputs": [
        {
          "internalType": "address",
          "name": "_account",
          "type": "address"
        },
        {
          "internalType": "uint256",
          "name": "_blockNumber",
          "type": "uint256"
        }
      ],
      "name": "isListedAtBlock",
      "outputs": [
        {
          "internalType": "bool",
          "name": "",
          "type": "bool"
        }
      ],
      "stateMutability": "view",
      "type": "function"
    },
    {
      "inputs": [
        {
          "internalType": "address[]",
          "name": "_exitingAddresses",
          "type": "address[]"
        }
      ],
      "name": "removeAddresses",
      "outputs": [],
      "stateMutability": "nonpayable",
      "type": "function"
    }
  ],
  "bytecode": "0x608060405234801561001057600080fd5b50610905806100206000396000f3fe608060405234801561001057600080fd5b50600436106100725760003560e01c8063a84eb99911610050578063a84eb999146100ba578063b1bb8d26146100cd578063f794062e146100f057600080fd5b806327f1608d146100775780633628731c146100925780636a6b2d86146100a7575b600080fd5b61007f610103565b6040519081526020015b60405180910390f35b6100a56100a0366004610795565b61011d565b005b61007f6100b536600461080a565b61012b565b6100a56100c8366004610795565b61013e565b6100e06100db36600461083f565b610148565b6040519015158152602001610089565b6100e06100fe366004610869565b610174565b600061010f60016101a8565b6001600160e01b0316905090565b61012782826101f1565b5050565b60006101386001836102e9565b92915050565b610127828261039c565b6001600160a01b038216600090815260208190526040812061016a90836102e9565b6001149392505050565b6001600160a01b0381166000908152602081905260408120610195906101a8565b6001600160e01b03166001149050919050565b805460009080156101e7576101d0836101c260018461089a565b600091825260209091200190565b5464010000000090046001600160e01b03166101ea565b60005b9392505050565b60005b818110156102d457610226838383818110610211576102116108ad565b90506020020160208101906100fe9190610869565b1561027c5782828281811061023d5761023d6108ad565b90506020020160208101906102529190610869565b60405163c0b7477d60e01b81526001600160a01b0390911660048201526024015b60405180910390fd5b6102ca6001600080868686818110610296576102966108ad565b90506020020160208101906102ab9190610869565b6001600160a01b03168152602081019190915260400160002090610405565b50506001016101f4565b506102e360016104398361043d565b50505050565b600043821061033a5760405162461bcd60e51b815260206004820181905260248201527f436865636b706f696e74733a20626c6f636b206e6f7420796574206d696e65646044820152606401610273565b600061034583610475565b84549091506000610358868483856104f5565b905080156103865761036f866101c260018461089a565b5464010000000090046001600160e01b0316610389565b60005b6001600160e01b03169695505050505050565b60005b818110156103f6576103bc838383818110610211576102116108ad565b6103d25782828281811061023d5761023d6108ad565b6103ec6000806000868686818110610296576102966108ad565b505060010161039f565b506102e360016105538361043d565b6000806104238461041543610475565b61041e86610558565b6105d7565b6001600160e01b03918216969116945092505050565b0190565b60008061046885610463610450886101a8565b6001600160e01b0316868863ffffffff16565b610405565b915091505b935093915050565b600063ffffffff8211156104f15760405162461bcd60e51b815260206004820152602660248201527f53616665436173743a2076616c756520646f65736e27742066697420696e203360448201527f32206269747300000000000000000000000000000000000000000000000000006064820152608401610273565b5090565b60005b8183101561054b57600061050c848461077a565b60008781526020902090915063ffffffff86169082015463ffffffff16111561053757809250610545565b6105428160016108c3565b93505b506104f8565b509392505050565b900390565b60006001600160e01b038211156104f15760405162461bcd60e51b815260206004820152602760248201527f53616665436173743a2076616c756520646f65736e27742066697420696e203260448201527f32342062697473000000000000000000000000000000000000000000000000006064820152608401610273565b8254600090819080156107205760006105f5876101c260018561089a565b60408051808201909152905463ffffffff8082168084526401000000009092046001600160e01b0316602084015291925090871610156106775760405162461bcd60e51b815260206004820152601b60248201527f436865636b706f696e743a2064656372656173696e67206b65797300000000006044820152606401610273565b805163ffffffff8088169116036106c05784610698886101c260018661089a565b80546001600160e01b03929092166401000000000263ffffffff909216919091179055610710565b6040805180820190915263ffffffff80881682526001600160e01b0380881660208085019182528b54600181018d5560008d81529190912094519151909216640100000000029216919091179101555b60200151925083915061046d9050565b50506040805180820190915263ffffffff80851682526001600160e01b0380851660208085019182528854600181018a5560008a81529182209551925190931664010000000002919093161792019190915590508161046d565b600061078960028484186108d6565b6101ea908484166108c3565b600080602083850312156107a857600080fd5b823567ffffffffffffffff808211156107c057600080fd5b818501915085601f8301126107d457600080fd5b8135818111156107e357600080fd5b8660208260051b85010111156107f857600080fd5b60209290920196919550909350505050565b60006020828403121561081c57600080fd5b5035919050565b80356001600160a01b038116811461083a57600080fd5b919050565b6000806040838503121561085257600080fd5b61085b83610823565b946020939093013593505050565b60006020828403121561087b57600080fd5b6101ea82610823565b634e487b7160e01b600052601160045260246000fd5b8181038181111561013857610138610884565b634e487b7160e01b600052603260045260246000fd5b8082018082111561013857610138610884565b6000826108f357634e487b7160e01b600052601260045260246000fd5b50049056fea164736f6c6343000811000a",
  "linkReferences": {},
  "deployedLinkReferences": {}
}