{
  "_format": "hh-sol-artifact-1",
  "contractName": "DAOMock",
  "sourceName": "src/mocks/dao/DAOMock.sol",
  "abi": [
    {
      "anonymous": false,
      "inputs": [
        {
          "indexed": true,
          "internalType": "address",
          "name": "sender",
          "type": "address"
        },
        {
          "indexed": true,
          "internalType": "address",
          "name": "token",
          "type": "address"
        },
        {
          "indexed": false,
          "internalType": "uint256",
          "name": "amount",
          "type": "uint256"
        },
        {
          "indexed": false,
          "internalType": "string",
          "name": "_reference",
          "type": "string"
        }
      ],
      "name": "Deposited",
      "type": "event"
    },
    {
      "anonymous": false,
      "inputs": [
        {
          "indexed": true,
          "internalType": "address",
          "name": "actor",
          "type": "address"
        },
        {
          "indexed": false,
          "internalType": "bytes32",
          "name": "callId",
          "type": "bytes32"
        },
        {
          "components": [
            {
              "internalType": "address",
              "name": "to",
              "type": "address"
            },
            {
              "internalType": "uint256",
              "name": "value",
              "type": "uint256"
            },
            {
              "internalType": "bytes",
              "name": "data",
              "type": "bytes"
            }
          ],
          "indexed": false,
          "internalType": "struct IDAO.Action[]",
          "name": "actions",
          "type": "tuple[]"
        },
        {
          "indexed": false,
          "internalType": "uint256",
          "name": "allowFailureMap",
          "type": "uint256"
        },
        {
          "indexed": false,
          "internalType": "uint256",
          "name": "failureMap",
          "type": "uint256"
        },
        {
          "indexed": false,
          "internalType": "bytes[]",
          "name": "execResults",
          "type": "bytes[]"
        }
      ],
      "name": "Executed",
      "type": "event"
    },
    {
      "anonymous": false,
      "inputs": [
        {
          "indexed": false,
          "internalType": "bytes",
          "name": "metadata",
          "type": "bytes"
        }
      ],
      "name": "MetadataSet",
      "type": "event"
    },
    {
      "anonymous": false,
      "inputs": [
        {
          "indexed": false,
          "internalType": "address",
          "name": "sender",
          "type": "address"
        },
        {
          "indexed": false,
          "internalType": "uint256",
          "name": "amount",
          "type": "uint256"
        }
      ],
      "name": "NativeTokenDeposited",
      "type": "event"
    },
    {
      "anonymous": false,
      "inputs": [
        {
          "indexed": false,
          "internalType": "bytes4",
          "name": "interfaceId",
          "type": "bytes4"
        },
        {
          "indexed": false,
          "internalType": "bytes4",
          "name": "callbackSelector",
          "type": "bytes4"
        },
        {
          "indexed": false,
          "internalType": "bytes4",
          "name": "magicNumber",
          "type": "bytes4"
        }
      ],
      "name": "StandardCallbackRegistered",
      "type": "event"
    },
    {
      "anonymous": false,
      "inputs": [
        {
          "indexed": false,
          "internalType": "address",
          "name": "forwarder",
          "type": "address"
        }
      ],
      "name": "TrustedForwarderSet",
      "type": "event"
    },
    {
      "inputs": [
        {
          "internalType": "address",
          "name": "_token",
          "type": "address"
        },
        {
          "internalType": "uint256",
          "name": "_amount",
          "type": "uint256"
        },
        {
          "internalType": "string",
          "name": "_reference",
          "type": "string"
        }
      ],
      "name": "deposit",
      "outputs": [],
      "stateMutability": "payable",
      "type": "function"
    },
    {
      "inputs": [
        {
          "internalType": "bytes32",
          "name": "callId",
          "type": "bytes32"
        },
        {
          "components": [
            {
              "internalType": "address",
              "name": "to",
              "type": "address"
            },
            {
              "internalType": "uint256",
              "name": "value",
              "type": "uint256"
            },
            {
              "internalType": "bytes",
              "name": "data",
              "type": "bytes"
            }
          ],
          "internalType": "struct IDAO.Action[]",
          "name": "_actions",
          "type": "tuple[]"
        },
        {
          "internalType": "uint256",
          "name": "allowFailureMap",
          "type": "uint256"
        }
      ],
      "name": "execute",
      "outputs": [
        {
          "internalType": "bytes[]",
          "name": "execResults",
          "type": "bytes[]"
        },
        {
          "internalType": "uint256",
          "name": "failureMap",
          "type": "uint256"
        }
      ],
      "stateMutability": "nonpayable",
      "type": "function"
    },
    {
      "inputs": [],
      "name": "getTrustedForwarder",
      "outputs": [
        {
          "internalType": "address",
          "name": "",
          "type": "address"
        }
      ],
      "stateMutability": "pure",
      "type": "function"
    },
    {
      "inputs": [
        {
          "internalType": "address",
          "name": "_where",
          "type": "address"
        },
        {
          "internalType": "address",
          "name": "_who",
          "type": "address"
        },
        {
          "internalType": "bytes32",
          "name": "_permissionId",
          "type": "bytes32"
        },
        {
          "internalType": "bytes",
          "name": "_data",
          "type": "bytes"
        }
      ],
      "name": "hasPermission",
      "outputs": [
        {
          "internalType": "bool",
          "name": "",
          "type": "bool"
        }
      ],
      "stateMutability": "view",
      "type": "function"
    },
    {
      "inputs": [],
      "name": "hasPermissionReturnValueMock",
      "outputs": [
        {
          "internalType": "bool",
          "name": "",
          "type": "bool"
        }
      ],
      "stateMutability": "view",
      "type": "function"
    },
    {
      "inputs": [
        {
          "internalType": "bytes32",
          "name": "_hash",
          "type": "bytes32"
        },
        {
          "internalType": "bytes",
          "name": "_signature",
          "type": "bytes"
        }
      ],
      "name": "isValidSignature",
      "outputs": [
        {
          "internalType": "bytes4",
          "name": "",
          "type": "bytes4"
        }
      ],
      "stateMutability": "pure",
      "type": "function"
    },
    {
      "inputs": [
        {
          "internalType": "bytes4",
          "name": "_interfaceId",
          "type": "bytes4"
        },
        {
          "internalType": "bytes4",
          "name": "_callbackSelector",
          "type": "bytes4"
        },
        {
          "internalType": "bytes4",
          "name": "_magicNumber",
          "type": "bytes4"
        }
      ],
      "name": "registerStandardCallback",
      "outputs": [],
      "stateMutability": "pure",
      "type": "function"
    },
    {
      "inputs": [
        {
          "internalType": "bool",
          "name": "_hasPermissionReturnValueMock",
          "type": "bool"
        }
      ],
      "name": "setHasPermissionReturnValueMock",
      "outputs": [],
      "stateMutability": "nonpayable",
      "type": "function"
    },
    {
      "inputs": [
        {
          "internalType": "bytes",
          "name": "_metadata",
          "type": "bytes"
        }
      ],
      "name": "setMetadata",
      "outputs": [],
      "stateMutability": "pure",
      "type": "function"
    },
    {
      "inputs": [
        {
          "internalType": "address",
          "name": "_signatureValidator",
          "type": "address"
        }
      ],
      "name": "setSignatureValidator",
      "outputs": [],
      "stateMutability": "pure",
      "type": "function"
    },
    {
      "inputs": [
        {
          "internalType": "address",
          "name": "_trustedForwarder",
          "type": "address"
        }
      ],
      "name": "setTrustedForwarder",
      "outputs": [],
      "stateMutability": "pure",
      "type": "function"
    }
  ],
  "bytecode": "0x608060405234801561001057600080fd5b506108bc806100206000396000f3fe6080604052600436106100bc5760003560e01c8063c4a5014511610074578063da7422281161004e578063da74222814610144578063ee57e36f14610210578063fdef91061461022f57600080fd5b8063c4a50145146101a6578063c71bf324146101c6578063ce1b815f146101f457600080fd5b80633e2ab0d9116100a55780633e2ab0d91461014457806380e4cbe114610164578063bfe07da61461019257600080fd5b80630a1f41ca146100c15780631626ba7e146100f0575b600080fd5b3480156100cd57600080fd5b506000546100db9060ff1681565b60405190151581526020015b60405180910390f35b3480156100fc57600080fd5b5061011361010b36600461039a565b600092915050565b6040517fffffffff0000000000000000000000000000000000000000000000000000000090911681526020016100e7565b34801561015057600080fd5b5061016261015f36600461040a565b50565b005b34801561017057600080fd5b5061016261017f36600461042c565b6000805460ff1916911515919091179055565b6101626101a0366004610497565b50505050565b3480156101b257600080fd5b506101626101c1366004610521565b505050565b3480156101d257600080fd5b506101e66101e1366004610564565b610258565b6040516100e7929190610722565b34801561020057600080fd5b50604051600081526020016100e7565b34801561021c57600080fd5b5061016261022b366004610744565b5050565b34801561023b57600080fd5b506100db61024a366004610786565b60005460ff16949350505050565b606060003373ffffffffffffffffffffffffffffffffffffffff167fd4e57c2049f004fb297ef78591cd409503ceb6b2c722d7ffed032fc99e5f3b5886868685876040516102aa9594939291906107ee565b60405180910390a2935093915050565b634e487b7160e01b600052604160045260246000fd5b6040516060810167ffffffffffffffff811182821017156102f3576102f36102ba565b60405290565b604051601f8201601f1916810167ffffffffffffffff81118282101715610322576103226102ba565b604052919050565b600082601f83011261033b57600080fd5b813567ffffffffffffffff811115610355576103556102ba565b610368601f8201601f19166020016102f9565b81815284602083860101111561037d57600080fd5b816020850160208301376000918101602001919091529392505050565b600080604083850312156103ad57600080fd5b82359150602083013567ffffffffffffffff8111156103cb57600080fd5b6103d78582860161032a565b9150509250929050565b803573ffffffffffffffffffffffffffffffffffffffff8116811461040557600080fd5b919050565b60006020828403121561041c57600080fd5b610425826103e1565b9392505050565b60006020828403121561043e57600080fd5b8135801515811461042557600080fd5b60008083601f84011261046057600080fd5b50813567ffffffffffffffff81111561047857600080fd5b60208301915083602082850101111561049057600080fd5b9250929050565b600080600080606085870312156104ad57600080fd5b6104b6856103e1565b935060208501359250604085013567ffffffffffffffff8111156104d957600080fd5b6104e58782880161044e565b95989497509550505050565b80357fffffffff000000000000000000000000000000000000000000000000000000008116811461040557600080fd5b60008060006060848603121561053657600080fd5b61053f846104f1565b925061054d602085016104f1565b915061055b604085016104f1565b90509250925092565b60008060006060848603121561057957600080fd5b8335925060208085013567ffffffffffffffff8082111561059957600080fd5b818701915087601f8301126105ad57600080fd5b8135818111156105bf576105bf6102ba565b8060051b6105ce8582016102f9565b918252838101850191858101908b8411156105e857600080fd5b86860192505b838310156106705782358581111561060557600080fd5b86016060818e03601f1901121561061b57600080fd5b6106236102d0565b61062e8983016103e1565b815260408201358982015260608201358781111561064c5760008081fd5b61065a8f8b8386010161032a565b60408301525083525091860191908601906105ee565b989b989a5050505060409690960135955050505050565b6000815180845260005b818110156106ad57602081850181015186830182015201610691565b506000602082860101526020601f19601f83011685010191505092915050565b600081518084526020808501808196508360051b8101915082860160005b85811015610715578284038952610703848351610687565b988501989350908401906001016106eb565b5091979650505050505050565b60408152600061073560408301856106cd565b90508260208301529392505050565b6000806020838503121561075757600080fd5b823567ffffffffffffffff81111561076e57600080fd5b61077a8582860161044e565b90969095509350505050565b6000806000806080858703121561079c57600080fd5b6107a5856103e1565b93506107b3602086016103e1565b925060408501359150606085013567ffffffffffffffff8111156107d657600080fd5b6107e28782880161032a565b91505092959194509250565b600060a08201878352602060a08185015281885180845260c08601915060c08160051b8701019350828a0160005b828110156108805787860360bf190184528151805173ffffffffffffffffffffffffffffffffffffffff168752858101518688015260409081015160609188018290529061086c81890183610687565b97505050928401929084019060010161081c565b505050505085604084015284606084015282810360808401526108a381856106cd565b9897505050505050505056fea164736f6c6343000811000a",
  "linkReferences": {},
  "deployedLinkReferences": {}
}