{
  "_format": "hh-sol-artifact-1",
  "contractName": "PluginMockBuild1",
  "sourceName": "src/mocks/plugin/PluginMock.sol",
  "abi": [
    {
      "inputs": [
        {
          "internalType": "contract IDAO",
          "name": "_dao",
          "type": "address"
        }
      ],
      "stateMutability": "nonpayable",
      "type": "constructor"
    },
    {
      "anonymous": false,
      "inputs": [
        {
          "indexed": true,
          "internalType": "address",
          "name": "previousTarget",
          "type": "address"
        },
        {
          "indexed": true,
          "internalType": "address",
          "name": "newTarget",
          "type": "address"
        }
      ],
      "name": "TargetSet",
      "type": "event"
    },
    {
      "inputs": [],
      "name": "dao",
      "outputs": [
        {
          "internalType": "contract IDAO",
          "name": "",
          "type": "address"
        }
      ],
      "stateMutability": "view",
      "type": "function"
    },
    {
      "inputs": [],
      "name": "pluginType",
      "outputs": [
        {
          "internalType": "enum IPlugin.PluginType",
          "name": "",
          "type": "uint8"
        }
      ],
      "stateMutability": "pure",
      "type": "function"
    },
    {
      "inputs": [],
      "name": "protocolVersion",
      "outputs": [
        {
          "internalType": "uint8[3]",
          "name": "",
          "type": "uint8[3]"
        }
      ],
      "stateMutability": "pure",
      "type": "function"
    },
    {
      "inputs": [
        {
          "internalType": "address",
          "name": "_target",
          "type": "address"
        }
      ],
      "name": "setTarget",
      "outputs": [],
      "stateMutability": "nonpayable",
      "type": "function"
    },
    {
      "inputs": [],
      "name": "state1",
      "outputs": [
        {
          "internalType": "uint256",
          "name": "",
          "type": "uint256"
        }
      ],
      "stateMutability": "view",
      "type": "function"
    },
    {
      "inputs": [
        {
          "internalType": "bytes4",
          "name": "_interfaceId",
          "type": "bytes4"
        }
      ],
      "name": "supportsInterface",
      "outputs": [
        {
          "internalType": "bool",
          "name": "",
          "type": "bool"
        }
      ],
      "stateMutability": "view",
      "type": "function"
    },
    {
      "inputs": [],
      "name": "target",
      "outputs": [
        {
          "internalType": "address",
          "name": "",
          "type": "address"
        }
      ],
      "stateMutability": "view",
      "type": "function"
    }
  ],
  "bytecode": "0x60a060405234801561001057600080fd5b5060405161039938038061039983398101604081905261002f91610044565b6001600160a01b031660805260018055610074565b60006020828403121561005657600080fd5b81516001600160a01b038116811461006d57600080fd5b9392505050565b60805161030b61008e600039600060c1015261030b6000f3fe608060405234801561001057600080fd5b506004361061007d5760003560e01c806341de68301161005b57806341de6830146100f95780636accab8c14610108578063776d1a011461011f578063d4b839921461013457600080fd5b806301ffc9a7146100825780632ae9c600146100aa5780634162169f146100bf575b600080fd5b610095610090366004610248565b610147565b60405190151581526020015b60405180910390f35b6100b2610198565b6040516100a19190610279565b7f00000000000000000000000000000000000000000000000000000000000000005b6040516001600160a01b0390911681526020016100a1565b60026040516100a191906102ad565b61011160015481565b6040519081526020016100a1565b61013261012d3660046102d5565b6101c2565b005b6000546100e1906001600160a01b031681565b60006001600160e01b0319821663041de68360e41b148061017757506001600160e01b03198216621574e360e91b145b8061019257506301ffc9a760e01b6001600160e01b03198316145b92915050565b6101a061022a565b5060408051606081018252600181526004602082015260009181019190915290565b600080546001600160a01b038381167fffffffffffffffffffffffff0000000000000000000000000000000000000000831681178455604051919092169283917f90cc2f570a6eb594b1580ea3e41247d2d73a55281889e86bd4ec2fc29c7e62d69190a35050565b60405180606001604052806003906020820280368337509192915050565b60006020828403121561025a57600080fd5b81356001600160e01b03198116811461027257600080fd5b9392505050565b60608101818360005b60038110156102a457815160ff16835260209283019290910190600101610282565b50505092915050565b60208101600383106102cf57634e487b7160e01b600052602160045260246000fd5b91905290565b6000602082840312156102e757600080fd5b81356001600160a01b038116811461027257600080fdfea164736f6c6343000811000a",
  "linkReferences": {},
  "deployedLinkReferences": {}
}