{
  "_format": "hh-sol-artifact-1",
  "contractName": "DaoAuthorizableMock",
  "sourceName": "src/mocks/permission/auth/DaoAuthorizableMock.sol",
  "abi": [
    {
      "inputs": [
        {
          "internalType": "contract IDAO",
          "name": "_dao",
          "type": "address"
        }
      ],
      "stateMutability": "nonpayable",
      "type": "constructor"
    },
    {
      "inputs": [
        {
          "internalType": "address",
          "name": "dao",
          "type": "address"
        },
        {
          "internalType": "address",
          "name": "where",
          "type": "address"
        },
        {
          "internalType": "address",
          "name": "who",
          "type": "address"
        },
        {
          "internalType": "bytes32",
          "name": "permissionId",
          "type": "bytes32"
        }
      ],
      "name": "DaoUnauthorized",
      "type": "error"
    },
    {
      "inputs": [],
      "name": "AUTHORIZED_FUNC_PERMISSION_ID",
      "outputs": [
        {
          "internalType": "bytes32",
          "name": "",
          "type": "bytes32"
        }
      ],
      "stateMutability": "view",
      "type": "function"
    },
    {
      "inputs": [],
      "name": "authorizedFunc",
      "outputs": [],
      "stateMutability": "nonpayable",
      "type": "function"
    },
    {
      "inputs": [],
      "name": "dao",
      "outputs": [
        {
          "internalType": "contract IDAO",
          "name": "",
          "type": "address"
        }
      ],
      "stateMutability": "view",
      "type": "function"
    }
  ],
  "bytecode": "0x60a060405234801561001057600080fd5b506040516102ee3803806102ee83398101604081905261002f91610040565b6001600160a01b0316608052610070565b60006020828403121561005257600080fd5b81516001600160a01b038116811461006957600080fd5b9392505050565b60805161025e61009060003960008181608d015260e7015261025e6000f3fe608060405234801561001057600080fd5b50600436106100415760003560e01c8063403f8575146100465780634162169f14610080578063f09e1623146100b7575b600080fd5b61006d7f6c28b2d088260f42eed051af4616ddda00554ec1880b580a4a9fbf40a70b09eb81565b6040519081526020015b60405180910390f35b6040516001600160a01b037f0000000000000000000000000000000000000000000000000000000000000000168152602001610077565b6100bf6100c1565b005b7f6c28b2d088260f42eed051af4616ddda00554ec1880b580a4a9fbf40a70b09eb6101117f0000000000000000000000000000000000000000000000000000000000000000303384600036610114565b50565b604051637ef7c88360e11b81526001600160a01b0387169063fdef91069061014890889088908890889088906004016101d4565b602060405180830381865afa158015610165573d6000803e3d6000fd5b505050506040513d601f19601f820116820180604052508101906101899190610228565b6101cc57604051630cb6f8ed60e21b81526001600160a01b0380881660048301528087166024830152851660448201526064810184905260840160405180910390fd5b505050505050565b60006001600160a01b03808816835280871660208401525084604083015260806060830152826080830152828460a0840137600060a0848401015260a0601f19601f85011683010190509695505050505050565b60006020828403121561023a57600080fd5b8151801515811461024a57600080fd5b939250505056fea164736f6c6343000811000a",
  "linkReferences": {},
  "deployedLinkReferences": {}
}