{
  "_format": "hh-sol-artifact-1",
  "contractName": "DaoAuthorizableUpgradeableMock",
  "sourceName": "src/mocks/permission/auth/DaoAuthorizableUpgradeableMock.sol",
  "abi": [
    {
      "inputs": [
        {
          "internalType": "address",
          "name": "dao",
          "type": "address"
        },
        {
          "internalType": "address",
          "name": "where",
          "type": "address"
        },
        {
          "internalType": "address",
          "name": "who",
          "type": "address"
        },
        {
          "internalType": "bytes32",
          "name": "permissionId",
          "type": "bytes32"
        }
      ],
      "name": "DaoUnauthorized",
      "type": "error"
    },
    {
      "anonymous": false,
      "inputs": [
        {
          "indexed": false,
          "internalType": "uint8",
          "name": "version",
          "type": "uint8"
        }
      ],
      "name": "Initialized",
      "type": "event"
    },
    {
      "inputs": [],
      "name": "AUTHORIZED_FUNC_PERMISSION_ID",
      "outputs": [
        {
          "internalType": "bytes32",
          "name": "",
          "type": "bytes32"
        }
      ],
      "stateMutability": "view",
      "type": "function"
    },
    {
      "inputs": [],
      "name": "authorizedFunc",
      "outputs": [],
      "stateMutability": "nonpayable",
      "type": "function"
    },
    {
      "inputs": [],
      "name": "dao",
      "outputs": [
        {
          "internalType": "contract IDAO",
          "name": "",
          "type": "address"
        }
      ],
      "stateMutability": "view",
      "type": "function"
    },
    {
      "inputs": [
        {
          "internalType": "contract IDAO",
          "name": "_dao",
          "type": "address"
        }
      ],
      "name": "initialize",
      "outputs": [],
      "stateMutability": "nonpayable",
      "type": "function"
    },
    {
      "inputs": [
        {
          "internalType": "contract IDAO",
          "name": "_dao",
          "type": "address"
        }
      ],
      "name": "notAnInitializer",
      "outputs": [],
      "stateMutability": "nonpayable",
      "type": "function"
    }
  ],
  "bytecode": "0x608060405234801561001057600080fd5b50610487806100206000396000f3fe608060405234801561001057600080fd5b50600436106100675760003560e01c80638883bbd7116100505780638883bbd7146100c1578063c4d66de8146100d6578063f09e1623146100e957600080fd5b8063403f85751461006c5780634162169f146100a6575b600080fd5b6100937f6c28b2d088260f42eed051af4616ddda00554ec1880b580a4a9fbf40a70b09eb81565b6040519081526020015b60405180910390f35b6033546040516001600160a01b03909116815260200161009d565b6100d46100cf3660046103d4565b6100f1565b005b6100d46100e43660046103d4565b6100fd565b6100d4610224565b6100fa81610261565b50565b600054610100900460ff161580801561011d5750600054600160ff909116105b806101375750303b158015610137575060005460ff166001145b6101ae5760405162461bcd60e51b815260206004820152602e60248201527f496e697469616c697a61626c653a20636f6e747261637420697320616c72656160448201527f647920696e697469616c697a656400000000000000000000000000000000000060648201526084015b60405180910390fd5b6000805460ff1916600117905580156101d1576000805461ff0019166101001790555b6101da82610261565b8015610220576000805461ff0019169055604051600181527f7f26b83ff96e1f2b6a682f133852f6798a09c465da95921460cefb38474024989060200160405180910390a15b5050565b6033547f6c28b2d088260f42eed051af4616ddda00554ec1880b580a4a9fbf40a70b09eb906100fa906001600160a01b0316303384600036610318565b600054610100900460ff166102de5760405162461bcd60e51b815260206004820152602b60248201527f496e697469616c697a61626c653a20636f6e7472616374206973206e6f74206960448201527f6e697469616c697a696e6700000000000000000000000000000000000000000060648201526084016101a5565b603380547fffffffffffffffffffffffff0000000000000000000000000000000000000000166001600160a01b0392909216919091179055565b604051637ef7c88360e11b81526001600160a01b0387169063fdef91069061034c9088908890889088908890600401610404565b602060405180830381865afa158015610369573d6000803e3d6000fd5b505050506040513d601f19601f8201168201806040525081019061038d9190610458565b6103cc57604051630cb6f8ed60e21b81526001600160a01b038088166004830152808716602483015285166044820152606481018490526084016101a5565b505050505050565b6000602082840312156103e657600080fd5b81356001600160a01b03811681146103fd57600080fd5b9392505050565b60006001600160a01b03808816835280871660208401525084604083015260806060830152826080830152828460a0840137600060a0848401015260a0601f19601f85011683010190509695505050505050565b60006020828403121561046a57600080fd5b815180151581146103fd57600080fdfea164736f6c6343000811000a",
  "linkReferences": {},
  "deployedLinkReferences": {}
}